{
  "_format": "hh-sol-artifact-1",
  "contractName": "OgDAOMock",
  "sourceName": "contracts/OgDAOMock.sol",
  "abi": [
    {
      "inputs": [],
      "name": "getSupportedNFTs",
      "outputs": [
        {
          "internalType": "address[]",
          "name": "",
          "type": "address[]"
        }
      ],
      "stateMutability": "view",
      "type": "function"
    },
    {
      "inputs": [],
      "name": "getThresholdQuantity",
      "outputs": [
        {
          "internalType": "uint256",
          "name": "",
          "type": "uint256"
        }
      ],
      "stateMutability": "pure",
      "type": "function"
    },
    {
      "inputs": [
        {
          "internalType": "address",
          "name": "",
          "type": "address"
        },
        {
          "internalType": "address",
          "name": "",
          "type": "address"
        },
        {
          "internalType": "uint256",
          "name": "",
          "type": "uint256"
        },
        {
          "internalType": "bytes",
          "name": "",
          "type": "bytes"
        }
      ],
      "name": "onERC721Received",
      "outputs": [
        {
          "internalType": "bytes4",
          "name": "",
          "type": "bytes4"
        }
      ],
      "stateMutability": "pure",
      "type": "function"
    },
    {
      "inputs": [
        {
          "internalType": "address[]",
          "name": "nfts",
          "type": "address[]"
        }
      ],
      "name": "setSupportedNFTs",
      "outputs": [],
      "stateMutability": "nonpayable",
      "type": "function"
    },
    {
      "inputs": [
        {
          "internalType": "address[]",
          "name": "tokens",
          "type": "address[]"
        }
      ],
      "name": "setSupportedTokens",
      "outputs": [],
      "stateMutability": "nonpayable",
      "type": "function"
    },
    {
      "inputs": [
        {
          "internalType": "uint256",
          "name": "",
          "type": "uint256"
        }
      ],
      "name": "supportedNFTs",
      "outputs": [
        {
          "internalType": "address",
          "name": "",
          "type": "address"
        }
      ],
      "stateMutability": "view",
      "type": "function"
    },
    {
      "inputs": [
        {
          "internalType": "uint256",
          "name": "",
          "type": "uint256"
        }
      ],
      "name": "supportedTokens",
      "outputs": [
        {
          "internalType": "address",
          "name": "",
          "type": "address"
        }
      ],
      "stateMutability": "view",
      "type": "function"
    },
    {
      "inputs": [
        {
          "internalType": "address payable",
          "name": "",
          "type": "address"
        }
      ],
      "name": "transferAssets",
      "outputs": [
        {
          "internalType": "address[]",
          "name": "",
          "type": "address[]"
        }
      ],
      "stateMutability": "nonpayable",
      "type": "function"
    },
    {
      "stateMutability": "payable",
      "type": "receive"
    }
  ],
  "bytecode": "0x608060405234801561001057600080fd5b506111b2806100206000396000f3fe60806040526004361061007f5760003560e01c8063b2486a3b1161004e578063b2486a3b14610147578063c625562614610184578063d28e270f146101c1578063e5c7bc30146101ea57610086565b8063150b7a021461008b5780636bea2818146100c85780636fe5c422146100f15780638736a3c31461011c57610086565b3661008657005b600080fd5b34801561009757600080fd5b506100b260048036038101906100ad9190610a19565b610227565b6040516100bf9190610adc565b60405180910390f35b3480156100d457600080fd5b506100ef60048036038101906100ea9190610b4d565b61023c565b005b3480156100fd57600080fd5b50610106610252565b6040516101139190610c58565b60405180910390f35b34801561012857600080fd5b506101316102e0565b60405161013e9190610c89565b60405180910390f35b34801561015357600080fd5b5061016e60048036038101906101699190610ca4565b6102e9565b60405161017b9190610ce0565b60405180910390f35b34801561019057600080fd5b506101ab60048036038101906101a69190610ca4565b610328565b6040516101b89190610ce0565b60405180910390f35b3480156101cd57600080fd5b506101e860048036038101906101e39190610b4d565b610367565b005b3480156101f657600080fd5b50610211600480360381019061020c9190610d39565b61037d565b60405161021e9190610c58565b60405180910390f35b600063150b7a0260e01b905095945050505050565b81816001919061024d929190610859565b505050565b606060018054806020026020016040519081016040528092919081815260200182805480156102d657602002820191906000526020600020905b8160009054906101000a900473ffffffffffffffffffffffffffffffffffffffff1673ffffffffffffffffffffffffffffffffffffffff168152602001906001019080831161028c575b5050505050905090565b60006007905090565b600181815481106102f957600080fd5b906000526020600020016000915054906101000a900473ffffffffffffffffffffffffffffffffffffffff1681565b6000818154811061033857600080fd5b906000526020600020016000915054906101000a900473ffffffffffffffffffffffffffffffffffffffff1681565b818160009190610378929190610859565b505050565b60603373ffffffffffffffffffffffffffffffffffffffff166108fc479081150290604051600060405180830381858888f193505050501580156103c5573d6000803e3d6000fd5b5060005b6000805490508110156104b05760008082815481106103eb576103ea610d66565b5b9060005260206000200160009054906101000a900473ffffffffffffffffffffffffffffffffffffffff16905061049c81338373ffffffffffffffffffffffffffffffffffffffff166370a08231306040518263ffffffff1660e01b81526004016104569190610ce0565b602060405180830381865afa158015610473573d6000803e3d6000fd5b505050506040513d601f19601f820116820180604052508101906104979190610daa565b61053f565b5080806104a890610e06565b9150506103c9565b50600080548060200260200160405190810160405280929190818152602001828054801561053357602002820191906000526020600020905b8160009054906101000a900473ffffffffffffffffffffffffffffffffffffffff1673ffffffffffffffffffffffffffffffffffffffff16815260200190600101908083116104e9575b50505050509050919050565b6105c08363a9059cbb60e01b848460405160240161055e929190610e4e565b604051602081830303815290604052907bffffffffffffffffffffffffffffffffffffffffffffffffffffffff19166020820180517bffffffffffffffffffffffffffffffffffffffffffffffffffffffff83818316178352505050506105c5565b505050565b6000610627826040518060400160405280602081526020017f5361666545524332303a206c6f772d6c6576656c2063616c6c206661696c65648152508573ffffffffffffffffffffffffffffffffffffffff1661068c9092919063ffffffff16565b905060008151111561068757808060200190518101906106479190610eaf565b610686576040517f08c379a000000000000000000000000000000000000000000000000000000000815260040161067d90610f5f565b60405180910390fd5b5b505050565b606061069b84846000856106a4565b90509392505050565b6060824710156106e9576040517f08c379a00000000000000000000000000000000000000000000000000000000081526004016106e090610ff1565b60405180910390fd5b6000808673ffffffffffffffffffffffffffffffffffffffff1685876040516107129190611082565b60006040518083038185875af1925050503d806000811461074f576040519150601f19603f3d011682016040523d82523d6000602084013e610754565b606091505b509150915061076587838387610771565b92505050949350505050565b606083156107d35760008351036107cb5761078b856107e6565b6107ca576040517f08c379a00000000000000000000000000000000000000000000000000000000081526004016107c1906110e5565b60405180910390fd5b5b8290506107de565b6107dd8383610809565b5b949350505050565b6000808273ffffffffffffffffffffffffffffffffffffffff163b119050919050565b60008251111561081c5781518083602001fd5b806040517f08c379a0000000000000000000000000000000000000000000000000000000008152600401610850919061115a565b60405180910390fd5b8280548282559060005260206000209081019282156108e8579160200282015b828111156108e757823573ffffffffffffffffffffffffffffffffffffffff168260006101000a81548173ffffffffffffffffffffffffffffffffffffffff021916908373ffffffffffffffffffffffffffffffffffffffff16021790555091602001919060010190610879565b5b5090506108f591906108f9565b5090565b5b808211156109125760008160009055506001016108fa565b5090565b600080fd5b600080fd5b600073ffffffffffffffffffffffffffffffffffffffff82169050919050565b600061094b82610920565b9050919050565b61095b81610940565b811461096657600080fd5b50565b60008135905061097881610952565b92915050565b6000819050919050565b6109918161097e565b811461099c57600080fd5b50565b6000813590506109ae81610988565b92915050565b600080fd5b600080fd5b600080fd5b60008083601f8401126109d9576109d86109b4565b5b8235905067ffffffffffffffff8111156109f6576109f56109b9565b5b602083019150836001820283011115610a1257610a116109be565b5b9250929050565b600080600080600060808688031215610a3557610a34610916565b5b6000610a4388828901610969565b9550506020610a5488828901610969565b9450506040610a658882890161099f565b935050606086013567ffffffffffffffff811115610a8657610a8561091b565b5b610a92888289016109c3565b92509250509295509295909350565b60007fffffffff0000000000000000000000000000000000000000000000000000000082169050919050565b610ad681610aa1565b82525050565b6000602082019050610af16000830184610acd565b92915050565b60008083601f840112610b0d57610b0c6109b4565b5b8235905067ffffffffffffffff811115610b2a57610b296109b9565b5b602083019150836020820283011115610b4657610b456109be565b5b9250929050565b60008060208385031215610b6457610b63610916565b5b600083013567ffffffffffffffff811115610b8257610b8161091b565b5b610b8e85828601610af7565b92509250509250929050565b600081519050919050565b600082825260208201905092915050565b6000819050602082019050919050565b610bcf81610940565b82525050565b6000610be18383610bc6565b60208301905092915050565b6000602082019050919050565b6000610c0582610b9a565b610c0f8185610ba5565b9350610c1a83610bb6565b8060005b83811015610c4b578151610c328882610bd5565b9750610c3d83610bed565b925050600181019050610c1e565b5085935050505092915050565b60006020820190508181036000830152610c728184610bfa565b905092915050565b610c838161097e565b82525050565b6000602082019050610c9e6000830184610c7a565b92915050565b600060208284031215610cba57610cb9610916565b5b6000610cc88482850161099f565b91505092915050565b610cda81610940565b82525050565b6000602082019050610cf56000830184610cd1565b92915050565b6000610d0682610920565b9050919050565b610d1681610cfb565b8114610d2157600080fd5b50565b600081359050610d3381610d0d565b92915050565b600060208284031215610d4f57610d4e610916565b5b6000610d5d84828501610d24565b91505092915050565b7f4e487b7100000000000000000000000000000000000000000000000000000000600052603260045260246000fd5b600081519050610da481610988565b92915050565b600060208284031215610dc057610dbf610916565b5b6000610dce84828501610d95565b91505092915050565b7f4e487b7100000000000000000000000000000000000000000000000000000000600052601160045260246000fd5b6000610e118261097e565b91507fffffffffffffffffffffffffffffffffffffffffffffffffffffffffffffffff8203610e4357610e42610dd7565b5b600182019050919050565b6000604082019050610e636000830185610cd1565b610e706020830184610c7a565b9392505050565b60008115159050919050565b610e8c81610e77565b8114610e9757600080fd5b50565b600081519050610ea981610e83565b92915050565b600060208284031215610ec557610ec4610916565b5b6000610ed384828501610e9a565b91505092915050565b600082825260208201905092915050565b7f5361666545524332303a204552433230206f7065726174696f6e20646964206e60008201527f6f74207375636365656400000000000000000000000000000000000000000000602082015250565b6000610f49602a83610edc565b9150610f5482610eed565b604082019050919050565b60006020820190508181036000830152610f7881610f3c565b9050919050565b7f416464726573733a20696e73756666696369656e742062616c616e636520666f60008201527f722063616c6c0000000000000000000000000000000000000000000000000000602082015250565b6000610fdb602683610edc565b9150610fe682610f7f565b604082019050919050565b6000602082019050818103600083015261100a81610fce565b9050919050565b600081519050919050565b600081905092915050565b60005b8381101561104557808201518184015260208101905061102a565b60008484015250505050565b600061105c82611011565b611066818561101c565b9350611076818560208601611027565b80840191505092915050565b600061108e8284611051565b915081905092915050565b7f416464726573733a2063616c6c20746f206e6f6e2d636f6e7472616374000000600082015250565b60006110cf601d83610edc565b91506110da82611099565b602082019050919050565b600060208201905081810360008301526110fe816110c2565b9050919050565b600081519050919050565b6000601f19601f8301169050919050565b600061112c82611105565b6111368185610edc565b9350611146818560208601611027565b61114f81611110565b840191505092915050565b600060208201905081810360008301526111748184611121565b90509291505056fea264697066735822122097ad755a5603aa5576e1be485dec53944b833e2f080b783f96c70d0fc251510364736f6c63430008120033",
  "linkReferences": {},
  "deployedLinkReferences": {}
}