{
  "_format": "hh-sol-artifact-1",
  "contractName": "OgDAOMock",
  "sourceName": "contracts/OgDAOMock.sol",
  "abi": [
    {
      "inputs": [],
      "name": "getSupportedNFTs",
      "outputs": [
        {
          "internalType": "address[]",
          "name": "",
          "type": "address[]"
        }
      ],
      "stateMutability": "view",
      "type": "function"
    },
    {
      "inputs": [],
      "name": "getSupportedTokens",
      "outputs": [
        {
          "internalType": "address[]",
          "name": "",
          "type": "address[]"
        }
      ],
      "stateMutability": "view",
      "type": "function"
    },
    {
      "inputs": [],
      "name": "getThresholdQuantity",
      "outputs": [
        {
          "internalType": "uint256",
          "name": "",
          "type": "uint256"
        }
      ],
      "stateMutability": "pure",
      "type": "function"
    },
    {
      "inputs": [
        {
          "internalType": "address",
          "name": "",
          "type": "address"
        },
        {
          "internalType": "address",
          "name": "",
          "type": "address"
        },
        {
          "internalType": "uint256",
          "name": "",
          "type": "uint256"
        },
        {
          "internalType": "bytes",
          "name": "",
          "type": "bytes"
        }
      ],
      "name": "onERC721Received",
      "outputs": [
        {
          "internalType": "bytes4",
          "name": "",
          "type": "bytes4"
        }
      ],
      "stateMutability": "pure",
      "type": "function"
    },
    {
      "inputs": [
        {
          "internalType": "address[]",
          "name": "nfts",
          "type": "address[]"
        }
      ],
      "name": "setSupportedNFTs",
      "outputs": [],
      "stateMutability": "nonpayable",
      "type": "function"
    },
    {
      "inputs": [
        {
          "internalType": "address[]",
          "name": "tokens",
          "type": "address[]"
        }
      ],
      "name": "setSupportedTokens",
      "outputs": [],
      "stateMutability": "nonpayable",
      "type": "function"
    },
    {
      "inputs": [
        {
          "internalType": "address payable",
          "name": "",
          "type": "address"
        },
        {
          "internalType": "uint256",
          "name": "",
          "type": "uint256"
        }
      ],
      "name": "transferAssets",
      "outputs": [],
      "stateMutability": "nonpayable",
      "type": "function"
    },
    {
      "stateMutability": "payable",
      "type": "receive"
    }
  ],
  "bytecode": "0x608060405234801561001057600080fd5b50610822806100206000396000f3fe6080604052600436106100745760003560e01c80638736a3c31161004e5780638736a3c314610111578063a59e46451461013c578063d28e270f14610165578063d3c7c2c71461018e5761007b565b8063150b7a02146100805780636bea2818146100bd5780636fe5c422146100e65761007b565b3661007b57005b600080fd5b34801561008c57600080fd5b506100a760048036038101906100a291906104e3565b6101b9565b6040516100b491906105a6565b60405180910390f35b3480156100c957600080fd5b506100e460048036038101906100df9190610617565b6101ce565b005b3480156100f257600080fd5b506100fb6101e4565b6040516101089190610722565b60405180910390f35b34801561011d57600080fd5b50610126610272565b6040516101339190610753565b60405180910390f35b34801561014857600080fd5b50610163600480360381019061015e91906107ac565b61027b565b005b34801561017157600080fd5b5061018c60048036038101906101879190610617565b61027f565b005b34801561019a57600080fd5b506101a3610295565b6040516101b09190610722565b60405180910390f35b600063150b7a0260e01b905095945050505050565b8181600191906101df929190610323565b505050565b6060600180548060200260200160405190810160405280929190818152602001828054801561026857602002820191906000526020600020905b8160009054906101000a900473ffffffffffffffffffffffffffffffffffffffff1673ffffffffffffffffffffffffffffffffffffffff168152602001906001019080831161021e575b5050505050905090565b60006007905090565b5050565b818160009190610290929190610323565b505050565b6060600080548060200260200160405190810160405280929190818152602001828054801561031957602002820191906000526020600020905b8160009054906101000a900473ffffffffffffffffffffffffffffffffffffffff1673ffffffffffffffffffffffffffffffffffffffff16815260200190600101908083116102cf575b5050505050905090565b8280548282559060005260206000209081019282156103b2579160200282015b828111156103b157823573ffffffffffffffffffffffffffffffffffffffff168260006101000a81548173ffffffffffffffffffffffffffffffffffffffff021916908373ffffffffffffffffffffffffffffffffffffffff16021790555091602001919060010190610343565b5b5090506103bf91906103c3565b5090565b5b808211156103dc5760008160009055506001016103c4565b5090565b600080fd5b600080fd5b600073ffffffffffffffffffffffffffffffffffffffff82169050919050565b6000610415826103ea565b9050919050565b6104258161040a565b811461043057600080fd5b50565b6000813590506104428161041c565b92915050565b6000819050919050565b61045b81610448565b811461046657600080fd5b50565b60008135905061047881610452565b92915050565b600080fd5b600080fd5b600080fd5b60008083601f8401126104a3576104a261047e565b5b8235905067ffffffffffffffff8111156104c0576104bf610483565b5b6020830191508360018202830111156104dc576104db610488565b5b9250929050565b6000806000806000608086880312156104ff576104fe6103e0565b5b600061050d88828901610433565b955050602061051e88828901610433565b945050604061052f88828901610469565b935050606086013567ffffffffffffffff8111156105505761054f6103e5565b5b61055c8882890161048d565b92509250509295509295909350565b60007fffffffff0000000000000000000000000000000000000000000000000000000082169050919050565b6105a08161056b565b82525050565b60006020820190506105bb6000830184610597565b92915050565b60008083601f8401126105d7576105d661047e565b5b8235905067ffffffffffffffff8111156105f4576105f3610483565b5b6020830191508360208202830111156106105761060f610488565b5b9250929050565b6000806020838503121561062e5761062d6103e0565b5b600083013567ffffffffffffffff81111561064c5761064b6103e5565b5b610658858286016105c1565b92509250509250929050565b600081519050919050565b600082825260208201905092915050565b6000819050602082019050919050565b6106998161040a565b82525050565b60006106ab8383610690565b60208301905092915050565b6000602082019050919050565b60006106cf82610664565b6106d9818561066f565b93506106e483610680565b8060005b838110156107155781516106fc888261069f565b9750610707836106b7565b9250506001810190506106e8565b5085935050505092915050565b6000602082019050818103600083015261073c81846106c4565b905092915050565b61074d81610448565b82525050565b60006020820190506107686000830184610744565b92915050565b6000610779826103ea565b9050919050565b6107898161076e565b811461079457600080fd5b50565b6000813590506107a681610780565b92915050565b600080604083850312156107c3576107c26103e0565b5b60006107d185828601610797565b92505060206107e285828601610469565b915050925092905056fea2646970667358221220bdfecaa1dfb4320b9da51e07c297a316eb5b214bd1132861cc50f35dee72039d64736f6c63430008120033",
  "linkReferences": {},
  "deployedLinkReferences": {}
}