{
  "_format": "hh-sol-artifact-1",
  "contractName": "OgDAOMock",
  "sourceName": "contracts/OgDAOMock.sol",
  "abi": [
    {
      "inputs": [],
      "name": "getSupportedNFTs",
      "outputs": [
        {
          "internalType": "address[]",
          "name": "",
          "type": "address[]"
        }
      ],
      "stateMutability": "view",
      "type": "function"
    },
    {
      "inputs": [],
      "name": "getSupportedTokens",
      "outputs": [
        {
          "internalType": "address[]",
          "name": "",
          "type": "address[]"
        }
      ],
      "stateMutability": "view",
      "type": "function"
    },
    {
      "inputs": [
        {
          "internalType": "address[]",
          "name": "nfts",
          "type": "address[]"
        }
      ],
      "name": "setSupportedNFTs",
      "outputs": [],
      "stateMutability": "nonpayable",
      "type": "function"
    },
    {
      "inputs": [
        {
          "internalType": "address[]",
          "name": "tokens",
          "type": "address[]"
        }
      ],
      "name": "setSupportedTokens",
      "outputs": [],
      "stateMutability": "nonpayable",
      "type": "function"
    },
    {
      "inputs": [
        {
          "internalType": "address payable",
          "name": "",
          "type": "address"
        },
        {
          "internalType": "uint256",
          "name": "",
          "type": "uint256"
        }
      ],
      "name": "transferAssets",
      "outputs": [],
      "stateMutability": "nonpayable",
      "type": "function"
    }
  ],
  "bytecode": "0x608060405234801561001057600080fd5b506105ad806100206000396000f3fe608060405234801561001057600080fd5b50600436106100575760003560e01c80636bea28181461005c5780636fe5c42214610078578063a59e464514610096578063d28e270f146100b2578063d3c7c2c7146100ce575b600080fd5b61007660048036038101906100719190610364565b6100ec565b005b610080610102565b60405161008d91906104a1565b60405180910390f35b6100b060048036038101906100ab9190610537565b610190565b005b6100cc60048036038101906100c79190610364565b610194565b005b6100d66101aa565b6040516100e391906104a1565b60405180910390f35b8181600191906100fd929190610238565b505050565b6060600180548060200260200160405190810160405280929190818152602001828054801561018657602002820191906000526020600020905b8160009054906101000a900473ffffffffffffffffffffffffffffffffffffffff1673ffffffffffffffffffffffffffffffffffffffff168152602001906001019080831161013c575b5050505050905090565b5050565b8181600091906101a5929190610238565b505050565b6060600080548060200260200160405190810160405280929190818152602001828054801561022e57602002820191906000526020600020905b8160009054906101000a900473ffffffffffffffffffffffffffffffffffffffff1673ffffffffffffffffffffffffffffffffffffffff16815260200190600101908083116101e4575b5050505050905090565b8280548282559060005260206000209081019282156102c7579160200282015b828111156102c657823573ffffffffffffffffffffffffffffffffffffffff168260006101000a81548173ffffffffffffffffffffffffffffffffffffffff021916908373ffffffffffffffffffffffffffffffffffffffff16021790555091602001919060010190610258565b5b5090506102d491906102d8565b5090565b5b808211156102f15760008160009055506001016102d9565b5090565b600080fd5b600080fd5b600080fd5b600080fd5b600080fd5b60008083601f840112610324576103236102ff565b5b8235905067ffffffffffffffff81111561034157610340610304565b5b60208301915083602082028301111561035d5761035c610309565b5b9250929050565b6000806020838503121561037b5761037a6102f5565b5b600083013567ffffffffffffffff811115610399576103986102fa565b5b6103a58582860161030e565b92509250509250929050565b600081519050919050565b600082825260208201905092915050565b6000819050602082019050919050565b600073ffffffffffffffffffffffffffffffffffffffff82169050919050565b6000610408826103dd565b9050919050565b610418816103fd565b82525050565b600061042a838361040f565b60208301905092915050565b6000602082019050919050565b600061044e826103b1565b61045881856103bc565b9350610463836103cd565b8060005b8381101561049457815161047b888261041e565b975061048683610436565b925050600181019050610467565b5085935050505092915050565b600060208201905081810360008301526104bb8184610443565b905092915050565b60006104ce826103dd565b9050919050565b6104de816104c3565b81146104e957600080fd5b50565b6000813590506104fb816104d5565b92915050565b6000819050919050565b61051481610501565b811461051f57600080fd5b50565b6000813590506105318161050b565b92915050565b6000806040838503121561054e5761054d6102f5565b5b600061055c858286016104ec565b925050602061056d85828601610522565b915050925092905056fea26469706673582212208c3df884fbc6e10b228ea80c70d6edcb798e894e9431121f98e550ef6822c43c64736f6c63430008120033",
  "linkReferences": {},
  "deployedLinkReferences": {}
}