{
  "_format": "hh-sol-artifact-1",
  "contractName": "DaoSplit",
  "sourceName": "contracts/daoSplit.sol",
  "abi": [
    {
      "inputs": [
        {
          "internalType": "address",
          "name": "_nounsNFT",
          "type": "address"
        },
        {
          "internalType": "address",
          "name": "_ogDao",
          "type": "address"
        }
      ],
      "stateMutability": "nonpayable",
      "type": "constructor"
    },
    {
      "anonymous": false,
      "inputs": [
        {
          "indexed": true,
          "internalType": "address",
          "name": "depositor",
          "type": "address"
        },
        {
          "indexed": false,
          "internalType": "uint256[]",
          "name": "tokenIds",
          "type": "uint256[]"
        }
      ],
      "name": "Deposited",
      "type": "event"
    },
    {
      "anonymous": false,
      "inputs": [
        {
          "indexed": true,
          "internalType": "address",
          "name": "redeemer",
          "type": "address"
        },
        {
          "indexed": false,
          "internalType": "uint256",
          "name": "numNouns",
          "type": "uint256"
        }
      ],
      "name": "Redeemed",
      "type": "event"
    },
    {
      "anonymous": false,
      "inputs": [
        {
          "indexed": false,
          "internalType": "uint256[]",
          "name": "nounsArr",
          "type": "uint256[]"
        }
      ],
      "name": "SplitNounsMoved",
      "type": "event"
    },
    {
      "anonymous": false,
      "inputs": [
        {
          "indexed": false,
          "internalType": "uint256",
          "name": "splitEndTime",
          "type": "uint256"
        }
      ],
      "name": "SplitThresholdMet",
      "type": "event"
    },
    {
      "anonymous": false,
      "inputs": [
        {
          "indexed": true,
          "internalType": "address",
          "name": "caller",
          "type": "address"
        }
      ],
      "name": "SplitTriggered",
      "type": "event"
    },
    {
      "anonymous": false,
      "inputs": [
        {
          "indexed": true,
          "internalType": "address",
          "name": "depositor",
          "type": "address"
        },
        {
          "indexed": false,
          "internalType": "uint256",
          "name": "tokenId",
          "type": "uint256"
        }
      ],
      "name": "Withdrawn",
      "type": "event"
    },
    {
      "inputs": [],
      "name": "currentPeriod",
      "outputs": [
        {
          "internalType": "enum DaoSplit.Period",
          "name": "",
          "type": "uint8"
        }
      ],
      "stateMutability": "view",
      "type": "function"
    },
    {
      "inputs": [
        {
          "internalType": "uint256[]",
          "name": "tokenIds",
          "type": "uint256[]"
        },
        {
          "internalType": "string",
          "name": "reason",
          "type": "string"
        }
      ],
      "name": "deposit",
      "outputs": [],
      "stateMutability": "nonpayable",
      "type": "function"
    },
    {
      "inputs": [],
      "name": "depositedNouns",
      "outputs": [
        {
          "internalType": "uint256",
          "name": "",
          "type": "uint256"
        }
      ],
      "stateMutability": "view",
      "type": "function"
    },
    {
      "inputs": [
        {
          "internalType": "uint256",
          "name": "",
          "type": "uint256"
        }
      ],
      "name": "depositedNounsInfo",
      "outputs": [
        {
          "internalType": "uint256",
          "name": "tokenId",
          "type": "uint256"
        },
        {
          "internalType": "address",
          "name": "depositor",
          "type": "address"
        },
        {
          "internalType": "string",
          "name": "reason",
          "type": "string"
        }
      ],
      "stateMutability": "view",
      "type": "function"
    },
    {
      "inputs": [
        {
          "internalType": "address",
          "name": "",
          "type": "address"
        },
        {
          "internalType": "uint256",
          "name": "",
          "type": "uint256"
        }
      ],
      "name": "depositorToNouns",
      "outputs": [
        {
          "internalType": "uint256",
          "name": "",
          "type": "uint256"
        }
      ],
      "stateMutability": "view",
      "type": "function"
    },
    {
      "inputs": [],
      "name": "getSplitThreshold",
      "outputs": [
        {
          "internalType": "uint256",
          "name": "",
          "type": "uint256"
        }
      ],
      "stateMutability": "view",
      "type": "function"
    },
    {
      "inputs": [],
      "name": "nounsNFT",
      "outputs": [
        {
          "internalType": "contract IERC721Enumerable",
          "name": "",
          "type": "address"
        }
      ],
      "stateMutability": "view",
      "type": "function"
    },
    {
      "inputs": [],
      "name": "ogDao",
      "outputs": [
        {
          "internalType": "contract IOgDAO",
          "name": "",
          "type": "address"
        }
      ],
      "stateMutability": "view",
      "type": "function"
    },
    {
      "inputs": [
        {
          "internalType": "address",
          "name": "",
          "type": "address"
        },
        {
          "internalType": "address",
          "name": "",
          "type": "address"
        },
        {
          "internalType": "uint256",
          "name": "",
          "type": "uint256"
        },
        {
          "internalType": "bytes",
          "name": "",
          "type": "bytes"
        }
      ],
      "name": "onERC721Received",
      "outputs": [
        {
          "internalType": "bytes4",
          "name": "",
          "type": "bytes4"
        }
      ],
      "stateMutability": "pure",
      "type": "function"
    },
    {
      "inputs": [],
      "name": "redeem",
      "outputs": [],
      "stateMutability": "nonpayable",
      "type": "function"
    },
    {
      "inputs": [
        {
          "internalType": "uint256",
          "name": "",
          "type": "uint256"
        }
      ],
      "name": "redeemableERC20s",
      "outputs": [
        {
          "internalType": "address",
          "name": "",
          "type": "address"
        }
      ],
      "stateMutability": "view",
      "type": "function"
    },
    {
      "inputs": [],
      "name": "redeemedNouns",
      "outputs": [
        {
          "internalType": "uint256",
          "name": "",
          "type": "uint256"
        }
      ],
      "stateMutability": "view",
      "type": "function"
    },
    {
      "inputs": [],
      "name": "splitEndTime",
      "outputs": [
        {
          "internalType": "uint256",
          "name": "",
          "type": "uint256"
        }
      ],
      "stateMutability": "view",
      "type": "function"
    },
    {
      "inputs": [],
      "name": "triggerSplit",
      "outputs": [],
      "stateMutability": "nonpayable",
      "type": "function"
    },
    {
      "inputs": [
        {
          "internalType": "uint256[]",
          "name": "nounsArr",
          "type": "uint256[]"
        }
      ],
      "name": "triggerSplitMoveNouns",
      "outputs": [],
      "stateMutability": "nonpayable",
      "type": "function"
    },
    {
      "inputs": [
        {
          "internalType": "uint256",
          "name": "tokenId",
          "type": "uint256"
        }
      ],
      "name": "withdraw",
      "outputs": [],
      "stateMutability": "nonpayable",
      "type": "function"
    },
    {
      "stateMutability": "payable",
      "type": "receive"
    }
  ],
  "bytecode": "0x60806040523480156200001157600080fd5b506040516200303438038062003034833981810160405281019062000037919062000133565b600160008190555081600560006101000a81548173ffffffffffffffffffffffffffffffffffffffff021916908373ffffffffffffffffffffffffffffffffffffffff16021790555080600660006101000a81548173ffffffffffffffffffffffffffffffffffffffff021916908373ffffffffffffffffffffffffffffffffffffffff16021790555050506200017a565b600080fd5b600073ffffffffffffffffffffffffffffffffffffffff82169050919050565b6000620000fb82620000ce565b9050919050565b6200010d81620000ee565b81146200011957600080fd5b50565b6000815190506200012d8162000102565b92915050565b600080604083850312156200014d576200014c620000c9565b5b60006200015d858286016200011c565b925050602062000170858286016200011c565b9150509250929050565b612eaa806200018a6000396000f3fe6080604052600436106100f75760003560e01c80637dff64771161008a578063c4ad6fd911610059578063c4ad6fd914610311578063cbd19cb81461033c578063cf5a9c4914610367578063e4cbc13f146103a4576100fe565b80637dff6477146102795780637ef470ff146102a457806390d114d7146102bb578063be040fb0146102fa576100fe565b80632e1a7d4d116100c65780632e1a7d4d146101d3578063471df92d146101fc5780634c93f9cf146102275780635270ebe214610250576100fe565b80630604061814610103578063150b7a021461012e5780631cdc817d1461016b5780632078a84814610196576100fe565b366100fe57005b600080fd5b34801561010f57600080fd5b506101186103cf565b6040516101259190611999565b60405180910390f35b34801561013a57600080fd5b5061015560048036038101906101509190611ac1565b610405565b6040516101629190611b84565b60405180910390f35b34801561017757600080fd5b5061018061041a565b60405161018d9190611bfe565b60405180910390f35b3480156101a257600080fd5b506101bd60048036038101906101b89190611c19565b610440565b6040516101ca9190611c68565b60405180910390f35b3480156101df57600080fd5b506101fa60048036038101906101f59190611c83565b610471565b005b34801561020857600080fd5b506102116107e8565b60405161021e9190611cd1565b60405180910390f35b34801561023357600080fd5b5061024e60048036038101906102499190611ef0565b61080e565b005b34801561025c57600080fd5b5061027760048036038101906102729190611f68565b610b49565b005b34801561028557600080fd5b5061028e610d21565b60405161029b9190611c68565b60405180910390f35b3480156102b057600080fd5b506102b9610d27565b005b3480156102c757600080fd5b506102e260048036038101906102dd9190611c83565b610f76565b6040516102f19392919061203f565b60405180910390f35b34801561030657600080fd5b5061030f611048565b005b34801561031d57600080fd5b506103266113c4565b6040516103339190611c68565b60405180910390f35b34801561034857600080fd5b506103516113ca565b60405161035e9190611c68565b60405180910390f35b34801561037357600080fd5b5061038e60048036038101906103899190611c83565b6113d0565b60405161039b919061207d565b60405180910390f35b3480156103b057600080fd5b506103b961140f565b6040516103c69190611c68565b60405180910390f35b60006103d961140f565b60015410156103eb5760009050610402565b6003544211156103fc5760026103ff565b60015b90505b90565b600063150b7a0260e01b905095945050505050565b600560009054906101000a900473ffffffffffffffffffffffffffffffffffffffff1681565b6008602052816000526040600020818154811061045c57600080fd5b90600052602060002001600091509150505481565b6104796114a7565b6000600281111561048d5761048c611922565b5b6104956103cf565b60028111156104a7576104a6611922565b5b146104e7576040517f08c379a00000000000000000000000000000000000000000000000000000000081526004016104de9061210a565b60405180910390fd5b3373ffffffffffffffffffffffffffffffffffffffff166007600083815260200190815260200160002060010160009054906101000a900473ffffffffffffffffffffffffffffffffffffffff1673ffffffffffffffffffffffffffffffffffffffff161461058b576040517f08c379a000000000000000000000000000000000000000000000000000000000815260040161058290612176565b60405180910390fd5b600760008281526020019081526020016000206000808201600090556001820160006101000a81549073ffffffffffffffffffffffffffffffffffffffff02191690556002820160006105de919061181a565b5050600160008154809291906105f3906121c5565b91905055506000600860003373ffffffffffffffffffffffffffffffffffffffff1673ffffffffffffffffffffffffffffffffffffffff168152602001908152602001600020905060005b81805490508110156106fc578282828154811061065e5761065d6121ee565b5b9060005260206000200154036106e9578160018380549050610680919061221d565b81548110610691576106906121ee565b5b90600052602060002001548282815481106106af576106ae6121ee565b5b9060005260206000200181905550818054806106ce576106cd612251565b5b600190038181906000526020600020016000905590556106fc565b80806106f490612280565b91505061063e565b503373ffffffffffffffffffffffffffffffffffffffff167f7084f5476618d8e60b11ef0d7d3f06914655adb8793e28ff7f018d4c76d505d5836040516107439190611c68565b60405180910390a2600560009054906101000a900473ffffffffffffffffffffffffffffffffffffffff1673ffffffffffffffffffffffffffffffffffffffff166342842e0e3033856040518463ffffffff1660e01b81526004016107aa939291906122c8565b600060405180830381600087803b1580156107c457600080fd5b505af11580156107d8573d6000803e3d6000fd5b50505050506107e56114f6565b50565b600660009054906101000a900473ffffffffffffffffffffffffffffffffffffffff1681565b6108166114a7565b60028081111561082957610828611922565b5b6108316103cf565b600281111561084357610842611922565b5b03610883576040517f08c379a000000000000000000000000000000000000000000000000000000000815260040161087a90612371565b60405180910390fd5b60005b8251811015610a7f5760008382815181106108a4576108a36121ee565b5b60200260200101519050600560009054906101000a900473ffffffffffffffffffffffffffffffffffffffff1673ffffffffffffffffffffffffffffffffffffffff166342842e0e3330846040518463ffffffff1660e01b815260040161090d939291906122c8565b600060405180830381600087803b15801561092757600080fd5b505af115801561093b573d6000803e3d6000fd5b505050506001600081548092919061095290612280565b919050555060405180606001604052808281526020013373ffffffffffffffffffffffffffffffffffffffff16815260200184815250600760008381526020019081526020016000206000820151816000015560208201518160010160006101000a81548173ffffffffffffffffffffffffffffffffffffffff021916908373ffffffffffffffffffffffffffffffffffffffff1602179055506040820151816002019081610a019190612593565b50905050600860003373ffffffffffffffffffffffffffffffffffffffff1673ffffffffffffffffffffffffffffffffffffffff168152602001908152602001600020819080600181540180825580915050600190039060005260206000200160009091909190915055508080610a7790612280565b915050610886565b50610a8861140f565b60015410158015610a9b57506000600354145b15610aef5762093a8042610aaf9190612665565b6003819055507f7975e6cebfdcc06c9a5d5da7d7a6c8249620255f7450e4784a06d2820bf711b1600354604051610ae69190611c68565b60405180910390a15b3373ffffffffffffffffffffffffffffffffffffffff167f5fd6a4ea3a70d0008d8e4f67c96a104bec3c71fa7da08e27c2e4858f66cd8a6a83604051610b359190612757565b60405180910390a2610b456114f6565b5050565b600280811115610b5c57610b5b611922565b5b610b646103cf565b6002811115610b7657610b75611922565b5b14610bb6576040517f08c379a0000000000000000000000000000000000000000000000000000000008152600401610bad906127c5565b60405180910390fd5b6000815111610bfa576040517f08c379a0000000000000000000000000000000000000000000000000000000008152600401610bf190612831565b60405180910390fd5b60005b8151811015610ce657600560009054906101000a900473ffffffffffffffffffffffffffffffffffffffff1673ffffffffffffffffffffffffffffffffffffffff166342842e0e30600660009054906101000a900473ffffffffffffffffffffffffffffffffffffffff16858581518110610c7b57610c7a6121ee565b5b60200260200101516040518463ffffffff1660e01b8152600401610ca1939291906122c8565b600060405180830381600087803b158015610cbb57600080fd5b505af1158015610ccf573d6000803e3d6000fd5b505050508080610cde90612280565b915050610bfd565b507fc48449f35178bf75f3370dcdc3b5145d3de53a555d70f60e9c8bec5c6c305e9d81604051610d169190612757565b60405180910390a150565b60015481565b600280811115610d3a57610d39611922565b5b610d426103cf565b6002811115610d5457610d53611922565b5b14610d94576040517f08c379a0000000000000000000000000000000000000000000000000000000008152600401610d8b906127c5565b60405180910390fd5b6000600560009054906101000a900473ffffffffffffffffffffffffffffffffffffffff1673ffffffffffffffffffffffffffffffffffffffff166370a08231306040518263ffffffff1660e01b8152600401610df1919061207d565b602060405180830381865afa158015610e0e573d6000803e3d6000fd5b505050506040513d601f19601f82011682018060405250810190610e329190612866565b905060008114610e77576040517f08c379a0000000000000000000000000000000000000000000000000000000008152600401610e6e906128df565b60405180910390fd5b600660009054906101000a900473ffffffffffffffffffffffffffffffffffffffff1673ffffffffffffffffffffffffffffffffffffffff1663e5c7bc30306040518263ffffffff1660e01b8152600401610ed29190612920565b6000604051808303816000875af1158015610ef1573d6000803e3d6000fd5b505050506040513d6000823e3d601f19601f82011682018060405250810190610f1a9190612a13565b60049080519060200190610f2f92919061185a565b503373ffffffffffffffffffffffffffffffffffffffff167fe2a6a1c4ac89d9721a0e8b72a5d8eace7c89a966e7d2fa8e4383f2fd62285f8160405160405180910390a250565b60076020528060005260406000206000915090508060000154908060010160009054906101000a900473ffffffffffffffffffffffffffffffffffffffff1690806002018054610fc5906123c0565b80601f0160208091040260200160405190810160405280929190818152602001828054610ff1906123c0565b801561103e5780601f106110135761010080835404028352916020019161103e565b820191906000526020600020905b81548152906001019060200180831161102157829003601f168201915b5050505050905083565b6110506114a7565b60028081111561106357611062611922565b5b61106b6103cf565b600281111561107d5761107c611922565b5b146110bd576040517f08c379a00000000000000000000000000000000000000000000000000000000081526004016110b4906127c5565b60405180910390fd5b6000600860003373ffffffffffffffffffffffffffffffffffffffff1673ffffffffffffffffffffffffffffffffffffffff16815260200190815260200160002090506000818054905090506000811161114c576040517f08c379a000000000000000000000000000000000000000000000000000000000815260040161114390612aa8565b60405180910390fd5b600060025460015461115e919061221d565b670de0b6b3a7640000836111729190612ac8565b61117c9190612b39565b905060004790506000670de0b6b3a7640000838361119a9190612ac8565b6111a49190612b39565b90503373ffffffffffffffffffffffffffffffffffffffff166108fc829081150290604051600060405180830381858888f193505050501580156111ec573d6000803e3d6000fd5b5060005b60048054905081101561130257600060048281548110611213576112126121ee565b5b9060005260206000200160009054906101000a900473ffffffffffffffffffffffffffffffffffffffff16905060008173ffffffffffffffffffffffffffffffffffffffff166370a08231306040518263ffffffff1660e01b815260040161127b919061207d565b602060405180830381865afa158015611298573d6000803e3d6000fd5b505050506040513d601f19601f820116820180604052508101906112bc9190612866565b90506000670de0b6b3a764000087836112d59190612ac8565b6112df9190612b39565b90506112ec833383611500565b50505080806112fa90612280565b9150506111f0565b5083600260008282546113159190612665565b92505081905550600860003373ffffffffffffffffffffffffffffffffffffffff1673ffffffffffffffffffffffffffffffffffffffff168152602001908152602001600020600061136791906118e4565b3373ffffffffffffffffffffffffffffffffffffffff167f4896181ff8f4543cc00db9fe9b6fb7e6f032b7eb772c72ab1ec1b4d2e03b9369856040516113ad9190611c68565b60405180910390a250505050506113c26114f6565b565b60025481565b60035481565b600481815481106113e057600080fd5b906000526020600020016000915054906101000a900473ffffffffffffffffffffffffffffffffffffffff1681565b6000600660009054906101000a900473ffffffffffffffffffffffffffffffffffffffff1673ffffffffffffffffffffffffffffffffffffffff16638736a3c36040518163ffffffff1660e01b8152600401602060405180830381865afa15801561147e573d6000803e3d6000fd5b505050506040513d601f19601f820116820180604052508101906114a29190612866565b905090565b6002600054036114ec576040517f08c379a00000000000000000000000000000000000000000000000000000000081526004016114e390612bb6565b60405180910390fd5b6002600081905550565b6001600081905550565b6115818363a9059cbb60e01b848460405160240161151f929190612bd6565b604051602081830303815290604052907bffffffffffffffffffffffffffffffffffffffffffffffffffffffff19166020820180517bffffffffffffffffffffffffffffffffffffffffffffffffffffffff8381831617835250505050611586565b505050565b60006115e8826040518060400160405280602081526020017f5361666545524332303a206c6f772d6c6576656c2063616c6c206661696c65648152508573ffffffffffffffffffffffffffffffffffffffff1661164d9092919063ffffffff16565b905060008151111561164857808060200190518101906116089190612c37565b611647576040517f08c379a000000000000000000000000000000000000000000000000000000000815260040161163e90612cd6565b60405180910390fd5b5b505050565b606061165c8484600085611665565b90509392505050565b6060824710156116aa576040517f08c379a00000000000000000000000000000000000000000000000000000000081526004016116a190612d68565b60405180910390fd5b6000808673ffffffffffffffffffffffffffffffffffffffff1685876040516116d39190612dcf565b60006040518083038185875af1925050503d8060008114611710576040519150601f19603f3d011682016040523d82523d6000602084013e611715565b606091505b509150915061172687838387611732565b92505050949350505050565b6060831561179457600083510361178c5761174c856117a7565b61178b576040517f08c379a000000000000000000000000000000000000000000000000000000000815260040161178290612e32565b60405180910390fd5b5b82905061179f565b61179e83836117ca565b5b949350505050565b6000808273ffffffffffffffffffffffffffffffffffffffff163b119050919050565b6000825111156117dd5781518083602001fd5b806040517f08c379a00000000000000000000000000000000000000000000000000000000081526004016118119190612e52565b60405180910390fd5b508054611826906123c0565b6000825580601f106118385750611857565b601f0160209004906000526020600020908101906118569190611905565b5b50565b8280548282559060005260206000209081019282156118d3579160200282015b828111156118d25782518260006101000a81548173ffffffffffffffffffffffffffffffffffffffff021916908373ffffffffffffffffffffffffffffffffffffffff1602179055509160200191906001019061187a565b5b5090506118e09190611905565b5090565b50805460008255906000526020600020908101906119029190611905565b50565b5b8082111561191e576000816000905550600101611906565b5090565b7f4e487b7100000000000000000000000000000000000000000000000000000000600052602160045260246000fd5b6003811061196257611961611922565b5b50565b600081905061197382611951565b919050565b600061198382611965565b9050919050565b61199381611978565b82525050565b60006020820190506119ae600083018461198a565b92915050565b6000604051905090565b600080fd5b600080fd5b600073ffffffffffffffffffffffffffffffffffffffff82169050919050565b60006119f3826119c8565b9050919050565b611a03816119e8565b8114611a0e57600080fd5b50565b600081359050611a20816119fa565b92915050565b6000819050919050565b611a3981611a26565b8114611a4457600080fd5b50565b600081359050611a5681611a30565b92915050565b600080fd5b600080fd5b600080fd5b60008083601f840112611a8157611a80611a5c565b5b8235905067ffffffffffffffff811115611a9e57611a9d611a61565b5b602083019150836001820283011115611aba57611ab9611a66565b5b9250929050565b600080600080600060808688031215611add57611adc6119be565b5b6000611aeb88828901611a11565b9550506020611afc88828901611a11565b9450506040611b0d88828901611a47565b935050606086013567ffffffffffffffff811115611b2e57611b2d6119c3565b5b611b3a88828901611a6b565b92509250509295509295909350565b60007fffffffff0000000000000000000000000000000000000000000000000000000082169050919050565b611b7e81611b49565b82525050565b6000602082019050611b996000830184611b75565b92915050565b6000819050919050565b6000611bc4611bbf611bba846119c8565b611b9f565b6119c8565b9050919050565b6000611bd682611ba9565b9050919050565b6000611be882611bcb565b9050919050565b611bf881611bdd565b82525050565b6000602082019050611c136000830184611bef565b92915050565b60008060408385031215611c3057611c2f6119be565b5b6000611c3e85828601611a11565b9250506020611c4f85828601611a47565b9150509250929050565b611c6281611a26565b82525050565b6000602082019050611c7d6000830184611c59565b92915050565b600060208284031215611c9957611c986119be565b5b6000611ca784828501611a47565b91505092915050565b6000611cbb82611bcb565b9050919050565b611ccb81611cb0565b82525050565b6000602082019050611ce66000830184611cc2565b92915050565b6000601f19601f8301169050919050565b7f4e487b7100000000000000000000000000000000000000000000000000000000600052604160045260246000fd5b611d3582611cec565b810181811067ffffffffffffffff82111715611d5457611d53611cfd565b5b80604052505050565b6000611d676119b4565b9050611d738282611d2c565b919050565b600067ffffffffffffffff821115611d9357611d92611cfd565b5b602082029050602081019050919050565b6000611db7611db284611d78565b611d5d565b90508083825260208201905060208402830185811115611dda57611dd9611a66565b5b835b81811015611e035780611def8882611a47565b845260208401935050602081019050611ddc565b5050509392505050565b600082601f830112611e2257611e21611a5c565b5b8135611e32848260208601611da4565b91505092915050565b600080fd5b600067ffffffffffffffff821115611e5b57611e5a611cfd565b5b611e6482611cec565b9050602081019050919050565b82818337600083830152505050565b6000611e93611e8e84611e40565b611d5d565b905082815260208101848484011115611eaf57611eae611e3b565b5b611eba848285611e71565b509392505050565b600082601f830112611ed757611ed6611a5c565b5b8135611ee7848260208601611e80565b91505092915050565b60008060408385031215611f0757611f066119be565b5b600083013567ffffffffffffffff811115611f2557611f246119c3565b5b611f3185828601611e0d565b925050602083013567ffffffffffffffff811115611f5257611f516119c3565b5b611f5e85828601611ec2565b9150509250929050565b600060208284031215611f7e57611f7d6119be565b5b600082013567ffffffffffffffff811115611f9c57611f9b6119c3565b5b611fa884828501611e0d565b91505092915050565b611fba816119e8565b82525050565b600081519050919050565b600082825260208201905092915050565b60005b83811015611ffa578082015181840152602081019050611fdf565b60008484015250505050565b600061201182611fc0565b61201b8185611fcb565b935061202b818560208601611fdc565b61203481611cec565b840191505092915050565b60006060820190506120546000830186611c59565b6120616020830185611fb1565b81810360408301526120738184612006565b9050949350505050565b60006020820190506120926000830184611fb1565b92915050565b7f5769746864726177616c73206f6e6c7920616c6c6f77656420696e207072652060008201527f73706c697420706572696f640000000000000000000000000000000000000000602082015250565b60006120f4602c83611fcb565b91506120ff82612098565b604082019050919050565b60006020820190508181036000830152612123816120e7565b9050919050565b7f4f6e6c7920746865206465706f7369746f722063616e20776974686472617700600082015250565b6000612160601f83611fcb565b915061216b8261212a565b602082019050919050565b6000602082019050818103600083015261218f81612153565b9050919050565b7f4e487b7100000000000000000000000000000000000000000000000000000000600052601160045260246000fd5b60006121d082611a26565b9150600082036121e3576121e2612196565b5b600182039050919050565b7f4e487b7100000000000000000000000000000000000000000000000000000000600052603260045260246000fd5b600061222882611a26565b915061223383611a26565b925082820390508181111561224b5761224a612196565b5b92915050565b7f4e487b7100000000000000000000000000000000000000000000000000000000600052603160045260246000fd5b600061228b82611a26565b91507fffffffffffffffffffffffffffffffffffffffffffffffffffffffffffffffff82036122bd576122bc612196565b5b600182019050919050565b60006060820190506122dd6000830186611fb1565b6122ea6020830185611fb1565b6122f76040830184611c59565b949350505050565b7f4465706f73697473206e6f7420616c6c6f77656420696e20706f73742073706c60008201527f697420706572696f640000000000000000000000000000000000000000000000602082015250565b600061235b602983611fcb565b9150612366826122ff565b604082019050919050565b6000602082019050818103600083015261238a8161234e565b9050919050565b7f4e487b7100000000000000000000000000000000000000000000000000000000600052602260045260246000fd5b600060028204905060018216806123d857607f821691505b6020821081036123eb576123ea612391565b5b50919050565b60008190508160005260206000209050919050565b60006020601f8301049050919050565b600082821b905092915050565b6000600883026124537fffffffffffffffffffffffffffffffffffffffffffffffffffffffffffffffff82612416565b61245d8683612416565b95508019841693508086168417925050509392505050565b600061249061248b61248684611a26565b611b9f565b611a26565b9050919050565b6000819050919050565b6124aa83612475565b6124be6124b682612497565b848454612423565b825550505050565b600090565b6124d36124c6565b6124de8184846124a1565b505050565b5b81811015612502576124f76000826124cb565b6001810190506124e4565b5050565b601f82111561254757612518816123f1565b61252184612406565b81016020851015612530578190505b61254461253c85612406565b8301826124e3565b50505b505050565b600082821c905092915050565b600061256a6000198460080261254c565b1980831691505092915050565b60006125838383612559565b9150826002028217905092915050565b61259c82611fc0565b67ffffffffffffffff8111156125b5576125b4611cfd565b5b6125bf82546123c0565b6125ca828285612506565b600060209050601f8311600181146125fd57600084156125eb578287015190505b6125f58582612577565b86555061265d565b601f19841661260b866123f1565b60005b828110156126335784890151825560018201915060208501945060208101905061260e565b86831015612650578489015161264c601f891682612559565b8355505b6001600288020188555050505b505050505050565b600061267082611a26565b915061267b83611a26565b925082820190508082111561269357612692612196565b5b92915050565b600081519050919050565b600082825260208201905092915050565b6000819050602082019050919050565b6126ce81611a26565b82525050565b60006126e083836126c5565b60208301905092915050565b6000602082019050919050565b600061270482612699565b61270e81856126a4565b9350612719836126b5565b8060005b8381101561274a57815161273188826126d4565b975061273c836126ec565b92505060018101905061271d565b5085935050505092915050565b6000602082019050818103600083015261277181846126f9565b905092915050565b7f4e6f7420696e20706f73742073706c697420706572696f640000000000000000600082015250565b60006127af601883611fcb565b91506127ba82612779565b602082019050919050565b600060208201905081810360008301526127de816127a2565b9050919050565b7f496e76616c6964206e6f756e7320617272617900000000000000000000000000600082015250565b600061281b601383611fcb565b9150612826826127e5565b602082019050919050565b6000602082019050818103600083015261284a8161280e565b9050919050565b60008151905061286081611a30565b92915050565b60006020828403121561287c5761287b6119be565b5b600061288a84828501612851565b91505092915050565b7f4e6f756e73207374696c6c20696e20636f6e7472616374000000000000000000600082015250565b60006128c9601783611fcb565b91506128d482612893565b602082019050919050565b600060208201905081810360008301526128f8816128bc565b9050919050565b600061290a826119c8565b9050919050565b61291a816128ff565b82525050565b60006020820190506129356000830184612911565b92915050565b600067ffffffffffffffff82111561295657612955611cfd565b5b602082029050602081019050919050565b600081519050612976816119fa565b92915050565b600061298f61298a8461293b565b611d5d565b905080838252602082019050602084028301858111156129b2576129b1611a66565b5b835b818110156129db57806129c78882612967565b8452602084019350506020810190506129b4565b5050509392505050565b600082601f8301126129fa576129f9611a5c565b5b8151612a0a84826020860161297c565b91505092915050565b600060208284031215612a2957612a286119be565b5b600082015167ffffffffffffffff811115612a4757612a466119c3565b5b612a53848285016129e5565b91505092915050565b7f4e6f204e6f756e7320746f2072656465656d0000000000000000000000000000600082015250565b6000612a92601283611fcb565b9150612a9d82612a5c565b602082019050919050565b60006020820190508181036000830152612ac181612a85565b9050919050565b6000612ad382611a26565b9150612ade83611a26565b9250828202612aec81611a26565b91508282048414831517612b0357612b02612196565b5b5092915050565b7f4e487b7100000000000000000000000000000000000000000000000000000000600052601260045260246000fd5b6000612b4482611a26565b9150612b4f83611a26565b925082612b5f57612b5e612b0a565b5b828204905092915050565b7f5265656e7472616e637947756172643a207265656e7472616e742063616c6c00600082015250565b6000612ba0601f83611fcb565b9150612bab82612b6a565b602082019050919050565b60006020820190508181036000830152612bcf81612b93565b9050919050565b6000604082019050612beb6000830185611fb1565b612bf86020830184611c59565b9392505050565b60008115159050919050565b612c1481612bff565b8114612c1f57600080fd5b50565b600081519050612c3181612c0b565b92915050565b600060208284031215612c4d57612c4c6119be565b5b6000612c5b84828501612c22565b91505092915050565b7f5361666545524332303a204552433230206f7065726174696f6e20646964206e60008201527f6f74207375636365656400000000000000000000000000000000000000000000602082015250565b6000612cc0602a83611fcb565b9150612ccb82612c64565b604082019050919050565b60006020820190508181036000830152612cef81612cb3565b9050919050565b7f416464726573733a20696e73756666696369656e742062616c616e636520666f60008201527f722063616c6c0000000000000000000000000000000000000000000000000000602082015250565b6000612d52602683611fcb565b9150612d5d82612cf6565b604082019050919050565b60006020820190508181036000830152612d8181612d45565b9050919050565b600081519050919050565b600081905092915050565b6000612da982612d88565b612db38185612d93565b9350612dc3818560208601611fdc565b80840191505092915050565b6000612ddb8284612d9e565b915081905092915050565b7f416464726573733a2063616c6c20746f206e6f6e2d636f6e7472616374000000600082015250565b6000612e1c601d83611fcb565b9150612e2782612de6565b602082019050919050565b60006020820190508181036000830152612e4b81612e0f565b9050919050565b60006020820190508181036000830152612e6c8184612006565b90509291505056fea2646970667358221220b07578c3420e24711e04636a6a9d106b7f83cc827d8a1295b458682223a2a77b64736f6c63430008120033",
  "linkReferences": {},
  "deployedLinkReferences": {}
}