{
  "_format": "hh-sol-artifact-1",
  "contractName": "DaoSplit",
  "sourceName": "contracts/daoSplit.sol",
  "abi": [
    {
      "inputs": [
        {
          "internalType": "address",
          "name": "_nounsNFT",
          "type": "address"
        },
        {
          "internalType": "address",
          "name": "_ogDao",
          "type": "address"
        }
      ],
      "stateMutability": "nonpayable",
      "type": "constructor"
    },
    {
      "anonymous": false,
      "inputs": [
        {
          "indexed": true,
          "internalType": "address",
          "name": "depositor",
          "type": "address"
        },
        {
          "indexed": false,
          "internalType": "uint256",
          "name": "tokenId",
          "type": "uint256"
        }
      ],
      "name": "Deposited",
      "type": "event"
    },
    {
      "anonymous": false,
      "inputs": [
        {
          "indexed": true,
          "internalType": "address",
          "name": "redeemer",
          "type": "address"
        },
        {
          "indexed": false,
          "internalType": "uint256",
          "name": "numNouns",
          "type": "uint256"
        }
      ],
      "name": "Redeemed",
      "type": "event"
    },
    {
      "anonymous": false,
      "inputs": [
        {
          "indexed": false,
          "internalType": "uint256[]",
          "name": "nounsArr",
          "type": "uint256[]"
        }
      ],
      "name": "SplitNounsMoved",
      "type": "event"
    },
    {
      "anonymous": false,
      "inputs": [
        {
          "indexed": false,
          "internalType": "uint256",
          "name": "splitEndTime",
          "type": "uint256"
        }
      ],
      "name": "SplitThresholdMet",
      "type": "event"
    },
    {
      "anonymous": false,
      "inputs": [
        {
          "indexed": true,
          "internalType": "address",
          "name": "caller",
          "type": "address"
        }
      ],
      "name": "SplitTriggered",
      "type": "event"
    },
    {
      "anonymous": false,
      "inputs": [
        {
          "indexed": true,
          "internalType": "address",
          "name": "depositor",
          "type": "address"
        },
        {
          "indexed": false,
          "internalType": "uint256",
          "name": "tokenId",
          "type": "uint256"
        }
      ],
      "name": "Withdrawn",
      "type": "event"
    },
    {
      "inputs": [],
      "name": "currentPeriod",
      "outputs": [
        {
          "internalType": "enum DaoSplit.Period",
          "name": "",
          "type": "uint8"
        }
      ],
      "stateMutability": "view",
      "type": "function"
    },
    {
      "inputs": [
        {
          "internalType": "uint256",
          "name": "tokenId",
          "type": "uint256"
        },
        {
          "internalType": "string",
          "name": "reason",
          "type": "string"
        }
      ],
      "name": "deposit",
      "outputs": [],
      "stateMutability": "nonpayable",
      "type": "function"
    },
    {
      "inputs": [],
      "name": "depositedNouns",
      "outputs": [
        {
          "internalType": "uint256",
          "name": "",
          "type": "uint256"
        }
      ],
      "stateMutability": "view",
      "type": "function"
    },
    {
      "inputs": [
        {
          "internalType": "uint256",
          "name": "",
          "type": "uint256"
        }
      ],
      "name": "depositedNounsInfo",
      "outputs": [
        {
          "internalType": "uint256",
          "name": "tokenId",
          "type": "uint256"
        },
        {
          "internalType": "address",
          "name": "depositor",
          "type": "address"
        },
        {
          "internalType": "string",
          "name": "reason",
          "type": "string"
        }
      ],
      "stateMutability": "view",
      "type": "function"
    },
    {
      "inputs": [
        {
          "internalType": "address",
          "name": "",
          "type": "address"
        },
        {
          "internalType": "uint256",
          "name": "",
          "type": "uint256"
        }
      ],
      "name": "depositorToNouns",
      "outputs": [
        {
          "internalType": "uint256",
          "name": "",
          "type": "uint256"
        }
      ],
      "stateMutability": "view",
      "type": "function"
    },
    {
      "inputs": [],
      "name": "getSplitThreshold",
      "outputs": [
        {
          "internalType": "uint256",
          "name": "",
          "type": "uint256"
        }
      ],
      "stateMutability": "view",
      "type": "function"
    },
    {
      "inputs": [],
      "name": "nounsNFT",
      "outputs": [
        {
          "internalType": "contract IERC721Enumerable",
          "name": "",
          "type": "address"
        }
      ],
      "stateMutability": "view",
      "type": "function"
    },
    {
      "inputs": [],
      "name": "ogDao",
      "outputs": [
        {
          "internalType": "contract IOgDAO",
          "name": "",
          "type": "address"
        }
      ],
      "stateMutability": "view",
      "type": "function"
    },
    {
      "inputs": [
        {
          "internalType": "address",
          "name": "",
          "type": "address"
        },
        {
          "internalType": "address",
          "name": "",
          "type": "address"
        },
        {
          "internalType": "uint256",
          "name": "",
          "type": "uint256"
        },
        {
          "internalType": "bytes",
          "name": "",
          "type": "bytes"
        }
      ],
      "name": "onERC721Received",
      "outputs": [
        {
          "internalType": "bytes4",
          "name": "",
          "type": "bytes4"
        }
      ],
      "stateMutability": "pure",
      "type": "function"
    },
    {
      "inputs": [],
      "name": "redeem",
      "outputs": [],
      "stateMutability": "nonpayable",
      "type": "function"
    },
    {
      "inputs": [],
      "name": "splitEndTime",
      "outputs": [
        {
          "internalType": "uint256",
          "name": "",
          "type": "uint256"
        }
      ],
      "stateMutability": "view",
      "type": "function"
    },
    {
      "inputs": [],
      "name": "triggerSplit",
      "outputs": [],
      "stateMutability": "nonpayable",
      "type": "function"
    },
    {
      "inputs": [
        {
          "internalType": "uint256[]",
          "name": "nounsArr",
          "type": "uint256[]"
        }
      ],
      "name": "triggerSplitMoveNouns",
      "outputs": [],
      "stateMutability": "nonpayable",
      "type": "function"
    },
    {
      "inputs": [
        {
          "internalType": "uint256",
          "name": "tokenId",
          "type": "uint256"
        }
      ],
      "name": "withdraw",
      "outputs": [],
      "stateMutability": "nonpayable",
      "type": "function"
    },
    {
      "stateMutability": "payable",
      "type": "receive"
    }
  ],
  "bytecode": "0x60806040523480156200001157600080fd5b506040516200319838038062003198833981810160405281019062000037919062000133565b600160008190555081600360006101000a81548173ffffffffffffffffffffffffffffffffffffffff021916908373ffffffffffffffffffffffffffffffffffffffff16021790555080600460006101000a81548173ffffffffffffffffffffffffffffffffffffffff021916908373ffffffffffffffffffffffffffffffffffffffff16021790555050506200017a565b600080fd5b600073ffffffffffffffffffffffffffffffffffffffff82169050919050565b6000620000fb82620000ce565b9050919050565b6200010d81620000ee565b81146200011957600080fd5b50565b6000815190506200012d8162000102565b92915050565b600080604083850312156200014d576200014c620000c9565b5b60006200015d858286016200011c565b925050602062000170858286016200011c565b9150509250929050565b61300e806200018a6000396000f3fe6080604052600436106100e15760003560e01c80637dff64771161007f578063be040fb011610059578063be040fb0146102cb578063cbd19cb8146102e2578063e4cbc13f1461030d578063f1215d2514610338576100f8565b80637dff64771461024a5780637ef470ff1461027557806390d114d71461028c576100f8565b80632078a848116100bb5780632078a848146101905780632e1a7d4d146101cd578063471df92d146101f65780635270ebe214610221576100f8565b806306040618146100fd578063150b7a02146101285780631cdc817d14610165576100f8565b366100f8576100ee610361565b6100f66103b0565b005b600080fd5b34801561010957600080fd5b506101126103ba565b60405161011f9190611b0b565b60405180910390f35b34801561013457600080fd5b5061014f600480360381019061014a9190611c33565b6103f0565b60405161015c9190611cf6565b60405180910390f35b34801561017157600080fd5b5061017a610405565b6040516101879190611d70565b60405180910390f35b34801561019c57600080fd5b506101b760048036038101906101b29190611d8b565b61042b565b6040516101c49190611dda565b60405180910390f35b3480156101d957600080fd5b506101f460048036038101906101ef9190611df5565b61045c565b005b34801561020257600080fd5b5061020b6107d3565b6040516102189190611e43565b60405180910390f35b34801561022d57600080fd5b5061024860048036038101906102439190611fad565b6107f9565b005b34801561025657600080fd5b5061025f6109d1565b60405161026c9190611dda565b60405180910390f35b34801561028157600080fd5b5061028a6109d7565b005b34801561029857600080fd5b506102b360048036038101906102ae9190611df5565b610bfe565b6040516102c293929190612084565b60405180910390f35b3480156102d757600080fd5b506102e0610cd0565b005b3480156102ee57600080fd5b506102f761132c565b6040516103049190611dda565b60405180910390f35b34801561031957600080fd5b50610322611332565b60405161032f9190611dda565b60405180910390f35b34801561034457600080fd5b5061035f600480360381019061035a9190612177565b6113ca565b005b6002600054036103a6576040517f08c379a000000000000000000000000000000000000000000000000000000000815260040161039d9061221f565b60405180910390fd5b6002600081905550565b6001600081905550565b60006103c4611332565b60015410156103d657600090506103ed565b6002544211156103e75760026103ea565b60015b90505b90565b600063150b7a0260e01b905095945050505050565b600360009054906101000a900473ffffffffffffffffffffffffffffffffffffffff1681565b6006602052816000526040600020818154811061044757600080fd5b90600052602060002001600091509150505481565b610464610361565b6000600281111561047857610477611a94565b5b6104806103ba565b600281111561049257610491611a94565b5b146104d2576040517f08c379a00000000000000000000000000000000000000000000000000000000081526004016104c9906122b1565b60405180910390fd5b3373ffffffffffffffffffffffffffffffffffffffff166005600083815260200190815260200160002060010160009054906101000a900473ffffffffffffffffffffffffffffffffffffffff1673ffffffffffffffffffffffffffffffffffffffff1614610576576040517f08c379a000000000000000000000000000000000000000000000000000000000815260040161056d9061231d565b60405180910390fd5b600560008281526020019081526020016000206000808201600090556001820160006101000a81549073ffffffffffffffffffffffffffffffffffffffff02191690556002820160006105c99190611a16565b5050600160008154809291906105de9061236c565b91905055506000600660003373ffffffffffffffffffffffffffffffffffffffff1673ffffffffffffffffffffffffffffffffffffffff168152602001908152602001600020905060005b81805490508110156106e7578282828154811061064957610648612395565b5b9060005260206000200154036106d457816001838054905061066b91906123c4565b8154811061067c5761067b612395565b5b906000526020600020015482828154811061069a57610699612395565b5b9060005260206000200181905550818054806106b9576106b86123f8565b5b600190038181906000526020600020016000905590556106e7565b80806106df90612427565b915050610629565b503373ffffffffffffffffffffffffffffffffffffffff167f7084f5476618d8e60b11ef0d7d3f06914655adb8793e28ff7f018d4c76d505d58360405161072e9190611dda565b60405180910390a2600360009054906101000a900473ffffffffffffffffffffffffffffffffffffffff1673ffffffffffffffffffffffffffffffffffffffff166342842e0e3033856040518463ffffffff1660e01b81526004016107959392919061246f565b600060405180830381600087803b1580156107af57600080fd5b505af11580156107c3573d6000803e3d6000fd5b50505050506107d06103b0565b50565b600460009054906101000a900473ffffffffffffffffffffffffffffffffffffffff1681565b60028081111561080c5761080b611a94565b5b6108146103ba565b600281111561082657610825611a94565b5b14610866576040517f08c379a000000000000000000000000000000000000000000000000000000000815260040161085d906124f2565b60405180910390fd5b60008151116108aa576040517f08c379a00000000000000000000000000000000000000000000000000000000081526004016108a19061255e565b60405180910390fd5b60005b815181101561099657600360009054906101000a900473ffffffffffffffffffffffffffffffffffffffff1673ffffffffffffffffffffffffffffffffffffffff166342842e0e30600460009054906101000a900473ffffffffffffffffffffffffffffffffffffffff1685858151811061092b5761092a612395565b5b60200260200101516040518463ffffffff1660e01b81526004016109519392919061246f565b600060405180830381600087803b15801561096b57600080fd5b505af115801561097f573d6000803e3d6000fd5b50505050808061098e90612427565b9150506108ad565b507fc48449f35178bf75f3370dcdc3b5145d3de53a555d70f60e9c8bec5c6c305e9d816040516109c6919061263c565b60405180910390a150565b60015481565b6002808111156109ea576109e9611a94565b5b6109f26103ba565b6002811115610a0457610a03611a94565b5b14610a44576040517f08c379a0000000000000000000000000000000000000000000000000000000008152600401610a3b906124f2565b60405180910390fd5b6000600360009054906101000a900473ffffffffffffffffffffffffffffffffffffffff1673ffffffffffffffffffffffffffffffffffffffff166370a08231306040518263ffffffff1660e01b8152600401610aa1919061265e565b602060405180830381865afa158015610abe573d6000803e3d6000fd5b505050506040513d601f19601f82011682018060405250810190610ae2919061268e565b905060008114610b27576040517f08c379a0000000000000000000000000000000000000000000000000000000008152600401610b1e90612707565b60405180910390fd5b600460009054906101000a900473ffffffffffffffffffffffffffffffffffffffff1673ffffffffffffffffffffffffffffffffffffffff1663a59e4645306001546040518363ffffffff1660e01b8152600401610b86929190612748565b600060405180830381600087803b158015610ba057600080fd5b505af1158015610bb4573d6000803e3d6000fd5b505050503373ffffffffffffffffffffffffffffffffffffffff167fe2a6a1c4ac89d9721a0e8b72a5d8eace7c89a966e7d2fa8e4383f2fd62285f8160405160405180910390a250565b60056020528060005260406000206000915090508060000154908060010160009054906101000a900473ffffffffffffffffffffffffffffffffffffffff1690806002018054610c4d906127a0565b80601f0160208091040260200160405190810160405280929190818152602001828054610c79906127a0565b8015610cc65780601f10610c9b57610100808354040283529160200191610cc6565b820191906000526020600020905b815481529060010190602001808311610ca957829003601f168201915b5050505050905083565b610cd8610361565b600280811115610ceb57610cea611a94565b5b610cf36103ba565b6002811115610d0557610d04611a94565b5b14610d45576040517f08c379a0000000000000000000000000000000000000000000000000000000008152600401610d3c906124f2565b60405180910390fd5b6000600660003373ffffffffffffffffffffffffffffffffffffffff1673ffffffffffffffffffffffffffffffffffffffff168152602001908152602001600020905060008180549050905060008111610dd4576040517f08c379a0000000000000000000000000000000000000000000000000000000008152600401610dcb9061281d565b60405180910390fd5b60006001549050600081670de0b6b3a764000084610df2919061283d565b610dfc91906128ae565b905060004790506000670de0b6b3a76400008383610e1a919061283d565b610e2491906128ae565b90503373ffffffffffffffffffffffffffffffffffffffff166108fc829081150290604051600060405180830381858888f19350505050158015610e6c573d6000803e3d6000fd5b506000600460009054906101000a900473ffffffffffffffffffffffffffffffffffffffff1673ffffffffffffffffffffffffffffffffffffffff1663d3c7c2c76040518163ffffffff1660e01b8152600401600060405180830381865afa158015610edc573d6000803e3d6000fd5b505050506040513d6000823e3d601f19601f82011682018060405250810190610f0591906129b7565b905060005b8151811015610ff4576000828281518110610f2857610f27612395565b5b6020026020010151905060008173ffffffffffffffffffffffffffffffffffffffff166370a08231306040518263ffffffff1660e01b8152600401610f6d919061265e565b602060405180830381865afa158015610f8a573d6000803e3d6000fd5b505050506040513d601f19601f82011682018060405250810190610fae919061268e565b90506000670de0b6b3a76400008883610fc7919061283d565b610fd191906128ae565b9050610fde8333836116fc565b5050508080610fec90612427565b915050610f0a565b506000600460009054906101000a900473ffffffffffffffffffffffffffffffffffffffff1673ffffffffffffffffffffffffffffffffffffffff16636fe5c4226040518163ffffffff1660e01b8152600401600060405180830381865afa158015611064573d6000803e3d6000fd5b505050506040513d6000823e3d601f19601f8201168201806040525081019061108d91906129b7565b905060005b81518110156112805760008282815181106110b0576110af612395565b5b6020026020010151905060008173ffffffffffffffffffffffffffffffffffffffff166370a08231306040518263ffffffff1660e01b81526004016110f5919061265e565b602060405180830381865afa158015611112573d6000803e3d6000fd5b505050506040513d601f19601f82011682018060405250810190611136919061268e565b90506000670de0b6b3a7640000898361114f919061283d565b61115991906128ae565b905060005b818110156112695760008473ffffffffffffffffffffffffffffffffffffffff16632f745c5930846040518363ffffffff1660e01b81526004016111a3929190612a00565b602060405180830381865afa1580156111c0573d6000803e3d6000fd5b505050506040513d601f19601f820116820180604052508101906111e4919061268e565b90508473ffffffffffffffffffffffffffffffffffffffff166342842e0e3033846040518463ffffffff1660e01b81526004016112239392919061246f565b600060405180830381600087803b15801561123d57600080fd5b505af1158015611251573d6000803e3d6000fd5b5050505050808061126190612427565b91505061115e565b50505050808061127890612427565b915050611092565b50600660003373ffffffffffffffffffffffffffffffffffffffff1673ffffffffffffffffffffffffffffffffffffffff16815260200190815260200160002060006112cc9190611a56565b3373ffffffffffffffffffffffffffffffffffffffff167f4896181ff8f4543cc00db9fe9b6fb7e6f032b7eb772c72ab1ec1b4d2e03b9369886040516113129190611dda565b60405180910390a2505050505050505061132a6103b0565b565b60025481565b6000600460009054906101000a900473ffffffffffffffffffffffffffffffffffffffff1673ffffffffffffffffffffffffffffffffffffffff16638736a3c36040518163ffffffff1660e01b8152600401602060405180830381865afa1580156113a1573d6000803e3d6000fd5b505050506040513d601f19601f820116820180604052508101906113c5919061268e565b905090565b6113d2610361565b600060028111156113e6576113e5611a94565b5b6113ee6103ba565b6002811115611400576113ff611a94565b5b148061143757506001600281111561141b5761141a611a94565b5b6114236103ba565b600281111561143557611434611a94565b5b145b611476576040517f08c379a000000000000000000000000000000000000000000000000000000000815260040161146d90612a9b565b60405180910390fd5b600360009054906101000a900473ffffffffffffffffffffffffffffffffffffffff1673ffffffffffffffffffffffffffffffffffffffff166342842e0e3330856040518463ffffffff1660e01b81526004016114d59392919061246f565b600060405180830381600087803b1580156114ef57600080fd5b505af1158015611503573d6000803e3d6000fd5b505050506001600081548092919061151a90612427565b919050555060405180606001604052808381526020013373ffffffffffffffffffffffffffffffffffffffff16815260200182815250600560008481526020019081526020016000206000820151816000015560208201518160010160006101000a81548173ffffffffffffffffffffffffffffffffffffffff021916908373ffffffffffffffffffffffffffffffffffffffff16021790555060408201518160020190816115c99190612c5d565b50905050600660003373ffffffffffffffffffffffffffffffffffffffff1673ffffffffffffffffffffffffffffffffffffffff16815260200190815260200160002082908060018154018082558091505060019003906000526020600020016000909190919091505561163b611332565b6001541015801561164e57506000600254145b156116a25762093a80426116629190612d2f565b6002819055507f7975e6cebfdcc06c9a5d5da7d7a6c8249620255f7450e4784a06d2820bf711b16002546040516116999190611dda565b60405180910390a15b3373ffffffffffffffffffffffffffffffffffffffff167f2da466a7b24304f47e87fa2e1e5a81b9831ce54fec19055ce277ca2f39ba42c4836040516116e89190611dda565b60405180910390a26116f86103b0565b5050565b61177d8363a9059cbb60e01b848460405160240161171b929190612a00565b604051602081830303815290604052907bffffffffffffffffffffffffffffffffffffffffffffffffffffffff19166020820180517bffffffffffffffffffffffffffffffffffffffffffffffffffffffff8381831617835250505050611782565b505050565b60006117e4826040518060400160405280602081526020017f5361666545524332303a206c6f772d6c6576656c2063616c6c206661696c65648152508573ffffffffffffffffffffffffffffffffffffffff166118499092919063ffffffff16565b905060008151111561184457808060200190518101906118049190612d9b565b611843576040517f08c379a000000000000000000000000000000000000000000000000000000000815260040161183a90612e3a565b60405180910390fd5b5b505050565b60606118588484600085611861565b90509392505050565b6060824710156118a6576040517f08c379a000000000000000000000000000000000000000000000000000000000815260040161189d90612ecc565b60405180910390fd5b6000808673ffffffffffffffffffffffffffffffffffffffff1685876040516118cf9190612f33565b60006040518083038185875af1925050503d806000811461190c576040519150601f19603f3d011682016040523d82523d6000602084013e611911565b606091505b50915091506119228783838761192e565b92505050949350505050565b6060831561199057600083510361198857611948856119a3565b611987576040517f08c379a000000000000000000000000000000000000000000000000000000000815260040161197e90612f96565b60405180910390fd5b5b82905061199b565b61199a83836119c6565b5b949350505050565b6000808273ffffffffffffffffffffffffffffffffffffffff163b119050919050565b6000825111156119d95781518083602001fd5b806040517f08c379a0000000000000000000000000000000000000000000000000000000008152600401611a0d9190612fb6565b60405180910390fd5b508054611a22906127a0565b6000825580601f10611a345750611a53565b601f016020900490600052602060002090810190611a529190611a77565b5b50565b5080546000825590600052602060002090810190611a749190611a77565b50565b5b80821115611a90576000816000905550600101611a78565b5090565b7f4e487b7100000000000000000000000000000000000000000000000000000000600052602160045260246000fd5b60038110611ad457611ad3611a94565b5b50565b6000819050611ae582611ac3565b919050565b6000611af582611ad7565b9050919050565b611b0581611aea565b82525050565b6000602082019050611b206000830184611afc565b92915050565b6000604051905090565b600080fd5b600080fd5b600073ffffffffffffffffffffffffffffffffffffffff82169050919050565b6000611b6582611b3a565b9050919050565b611b7581611b5a565b8114611b8057600080fd5b50565b600081359050611b9281611b6c565b92915050565b6000819050919050565b611bab81611b98565b8114611bb657600080fd5b50565b600081359050611bc881611ba2565b92915050565b600080fd5b600080fd5b600080fd5b60008083601f840112611bf357611bf2611bce565b5b8235905067ffffffffffffffff811115611c1057611c0f611bd3565b5b602083019150836001820283011115611c2c57611c2b611bd8565b5b9250929050565b600080600080600060808688031215611c4f57611c4e611b30565b5b6000611c5d88828901611b83565b9550506020611c6e88828901611b83565b9450506040611c7f88828901611bb9565b935050606086013567ffffffffffffffff811115611ca057611c9f611b35565b5b611cac88828901611bdd565b92509250509295509295909350565b60007fffffffff0000000000000000000000000000000000000000000000000000000082169050919050565b611cf081611cbb565b82525050565b6000602082019050611d0b6000830184611ce7565b92915050565b6000819050919050565b6000611d36611d31611d2c84611b3a565b611d11565b611b3a565b9050919050565b6000611d4882611d1b565b9050919050565b6000611d5a82611d3d565b9050919050565b611d6a81611d4f565b82525050565b6000602082019050611d856000830184611d61565b92915050565b60008060408385031215611da257611da1611b30565b5b6000611db085828601611b83565b9250506020611dc185828601611bb9565b9150509250929050565b611dd481611b98565b82525050565b6000602082019050611def6000830184611dcb565b92915050565b600060208284031215611e0b57611e0a611b30565b5b6000611e1984828501611bb9565b91505092915050565b6000611e2d82611d3d565b9050919050565b611e3d81611e22565b82525050565b6000602082019050611e586000830184611e34565b92915050565b6000601f19601f8301169050919050565b7f4e487b7100000000000000000000000000000000000000000000000000000000600052604160045260246000fd5b611ea782611e5e565b810181811067ffffffffffffffff82111715611ec657611ec5611e6f565b5b80604052505050565b6000611ed9611b26565b9050611ee58282611e9e565b919050565b600067ffffffffffffffff821115611f0557611f04611e6f565b5b602082029050602081019050919050565b6000611f29611f2484611eea565b611ecf565b90508083825260208201905060208402830185811115611f4c57611f4b611bd8565b5b835b81811015611f755780611f618882611bb9565b845260208401935050602081019050611f4e565b5050509392505050565b600082601f830112611f9457611f93611bce565b5b8135611fa4848260208601611f16565b91505092915050565b600060208284031215611fc357611fc2611b30565b5b600082013567ffffffffffffffff811115611fe157611fe0611b35565b5b611fed84828501611f7f565b91505092915050565b611fff81611b5a565b82525050565b600081519050919050565b600082825260208201905092915050565b60005b8381101561203f578082015181840152602081019050612024565b60008484015250505050565b600061205682612005565b6120608185612010565b9350612070818560208601612021565b61207981611e5e565b840191505092915050565b60006060820190506120996000830186611dcb565b6120a66020830185611ff6565b81810360408301526120b8818461204b565b9050949350505050565b600080fd5b600067ffffffffffffffff8211156120e2576120e1611e6f565b5b6120eb82611e5e565b9050602081019050919050565b82818337600083830152505050565b600061211a612115846120c7565b611ecf565b905082815260208101848484011115612136576121356120c2565b5b6121418482856120f8565b509392505050565b600082601f83011261215e5761215d611bce565b5b813561216e848260208601612107565b91505092915050565b6000806040838503121561218e5761218d611b30565b5b600061219c85828601611bb9565b925050602083013567ffffffffffffffff8111156121bd576121bc611b35565b5b6121c985828601612149565b9150509250929050565b7f5265656e7472616e637947756172643a207265656e7472616e742063616c6c00600082015250565b6000612209601f83612010565b9150612214826121d3565b602082019050919050565b60006020820190508181036000830152612238816121fc565b9050919050565b7f5769746864726177616c73206f6e6c7920616c6c6f77656420696e207072652060008201527f73706c697420706572696f640000000000000000000000000000000000000000602082015250565b600061229b602c83612010565b91506122a68261223f565b604082019050919050565b600060208201905081810360008301526122ca8161228e565b9050919050565b7f4f6e6c7920746865206465706f7369746f722063616e20776974686472617700600082015250565b6000612307601f83612010565b9150612312826122d1565b602082019050919050565b60006020820190508181036000830152612336816122fa565b9050919050565b7f4e487b7100000000000000000000000000000000000000000000000000000000600052601160045260246000fd5b600061237782611b98565b91506000820361238a5761238961233d565b5b600182039050919050565b7f4e487b7100000000000000000000000000000000000000000000000000000000600052603260045260246000fd5b60006123cf82611b98565b91506123da83611b98565b92508282039050818111156123f2576123f161233d565b5b92915050565b7f4e487b7100000000000000000000000000000000000000000000000000000000600052603160045260246000fd5b600061243282611b98565b91507fffffffffffffffffffffffffffffffffffffffffffffffffffffffffffffffff82036124645761246361233d565b5b600182019050919050565b60006060820190506124846000830186611ff6565b6124916020830185611ff6565b61249e6040830184611dcb565b949350505050565b7f4e6f7420696e20706f73742073706c697420706572696f640000000000000000600082015250565b60006124dc601883612010565b91506124e7826124a6565b602082019050919050565b6000602082019050818103600083015261250b816124cf565b9050919050565b7f496e76616c6964206e6f756e7320617272617900000000000000000000000000600082015250565b6000612548601383612010565b915061255382612512565b602082019050919050565b600060208201905081810360008301526125778161253b565b9050919050565b600081519050919050565b600082825260208201905092915050565b6000819050602082019050919050565b6125b381611b98565b82525050565b60006125c583836125aa565b60208301905092915050565b6000602082019050919050565b60006125e98261257e565b6125f38185612589565b93506125fe8361259a565b8060005b8381101561262f57815161261688826125b9565b9750612621836125d1565b925050600181019050612602565b5085935050505092915050565b6000602082019050818103600083015261265681846125de565b905092915050565b60006020820190506126736000830184611ff6565b92915050565b60008151905061268881611ba2565b92915050565b6000602082840312156126a4576126a3611b30565b5b60006126b284828501612679565b91505092915050565b7f4e6f756e73207374696c6c20696e20636f6e7472616374000000000000000000600082015250565b60006126f1601783612010565b91506126fc826126bb565b602082019050919050565b60006020820190508181036000830152612720816126e4565b9050919050565b600061273282611b3a565b9050919050565b61274281612727565b82525050565b600060408201905061275d6000830185612739565b61276a6020830184611dcb565b9392505050565b7f4e487b7100000000000000000000000000000000000000000000000000000000600052602260045260246000fd5b600060028204905060018216806127b857607f821691505b6020821081036127cb576127ca612771565b5b50919050565b7f4e6f204e6f756e7320746f2072656465656d0000000000000000000000000000600082015250565b6000612807601283612010565b9150612812826127d1565b602082019050919050565b60006020820190508181036000830152612836816127fa565b9050919050565b600061284882611b98565b915061285383611b98565b925082820261286181611b98565b915082820484148315176128785761287761233d565b5b5092915050565b7f4e487b7100000000000000000000000000000000000000000000000000000000600052601260045260246000fd5b60006128b982611b98565b91506128c483611b98565b9250826128d4576128d361287f565b5b828204905092915050565b600067ffffffffffffffff8211156128fa576128f9611e6f565b5b602082029050602081019050919050565b60008151905061291a81611b6c565b92915050565b600061293361292e846128df565b611ecf565b9050808382526020820190506020840283018581111561295657612955611bd8565b5b835b8181101561297f578061296b888261290b565b845260208401935050602081019050612958565b5050509392505050565b600082601f83011261299e5761299d611bce565b5b81516129ae848260208601612920565b91505092915050565b6000602082840312156129cd576129cc611b30565b5b600082015167ffffffffffffffff8111156129eb576129ea611b35565b5b6129f784828501612989565b91505092915050565b6000604082019050612a156000830185611ff6565b612a226020830184611dcb565b9392505050565b7f4465706f73697473206e6f7420616c6c6f77656420696e20706f73742073706c60008201527f697420706572696f640000000000000000000000000000000000000000000000602082015250565b6000612a85602983612010565b9150612a9082612a29565b604082019050919050565b60006020820190508181036000830152612ab481612a78565b9050919050565b60008190508160005260206000209050919050565b60006020601f8301049050919050565b600082821b905092915050565b600060088302612b1d7fffffffffffffffffffffffffffffffffffffffffffffffffffffffffffffffff82612ae0565b612b278683612ae0565b95508019841693508086168417925050509392505050565b6000612b5a612b55612b5084611b98565b611d11565b611b98565b9050919050565b6000819050919050565b612b7483612b3f565b612b88612b8082612b61565b848454612aed565b825550505050565b600090565b612b9d612b90565b612ba8818484612b6b565b505050565b5b81811015612bcc57612bc1600082612b95565b600181019050612bae565b5050565b601f821115612c1157612be281612abb565b612beb84612ad0565b81016020851015612bfa578190505b612c0e612c0685612ad0565b830182612bad565b50505b505050565b600082821c905092915050565b6000612c3460001984600802612c16565b1980831691505092915050565b6000612c4d8383612c23565b9150826002028217905092915050565b612c6682612005565b67ffffffffffffffff811115612c7f57612c7e611e6f565b5b612c8982546127a0565b612c94828285612bd0565b600060209050601f831160018114612cc75760008415612cb5578287015190505b612cbf8582612c41565b865550612d27565b601f198416612cd586612abb565b60005b82811015612cfd57848901518255600182019150602085019450602081019050612cd8565b86831015612d1a5784890151612d16601f891682612c23565b8355505b6001600288020188555050505b505050505050565b6000612d3a82611b98565b9150612d4583611b98565b9250828201905080821115612d5d57612d5c61233d565b5b92915050565b60008115159050919050565b612d7881612d63565b8114612d8357600080fd5b50565b600081519050612d9581612d6f565b92915050565b600060208284031215612db157612db0611b30565b5b6000612dbf84828501612d86565b91505092915050565b7f5361666545524332303a204552433230206f7065726174696f6e20646964206e60008201527f6f74207375636365656400000000000000000000000000000000000000000000602082015250565b6000612e24602a83612010565b9150612e2f82612dc8565b604082019050919050565b60006020820190508181036000830152612e5381612e17565b9050919050565b7f416464726573733a20696e73756666696369656e742062616c616e636520666f60008201527f722063616c6c0000000000000000000000000000000000000000000000000000602082015250565b6000612eb6602683612010565b9150612ec182612e5a565b604082019050919050565b60006020820190508181036000830152612ee581612ea9565b9050919050565b600081519050919050565b600081905092915050565b6000612f0d82612eec565b612f178185612ef7565b9350612f27818560208601612021565b80840191505092915050565b6000612f3f8284612f02565b915081905092915050565b7f416464726573733a2063616c6c20746f206e6f6e2d636f6e7472616374000000600082015250565b6000612f80601d83612010565b9150612f8b82612f4a565b602082019050919050565b60006020820190508181036000830152612faf81612f73565b9050919050565b60006020820190508181036000830152612fd0818461204b565b90509291505056fea26469706673582212202f486449af8a9f6bb98f13b92b30c748066e162a08eaf3f32d5c057f025ad64764736f6c63430008120033",
  "linkReferences": {},
  "deployedLinkReferences": {}
}