{
  "_format": "hh-sol-artifact-1",
  "contractName": "DaoSplit",
  "sourceName": "contracts/daoSplit.sol",
  "abi": [
    {
      "inputs": [
        {
          "internalType": "address",
          "name": "_nounsNFT",
          "type": "address"
        },
        {
          "internalType": "address",
          "name": "_ogDao",
          "type": "address"
        }
      ],
      "stateMutability": "nonpayable",
      "type": "constructor"
    },
    {
      "anonymous": false,
      "inputs": [
        {
          "indexed": true,
          "internalType": "address",
          "name": "depositor",
          "type": "address"
        },
        {
          "indexed": false,
          "internalType": "uint256",
          "name": "tokenId",
          "type": "uint256"
        }
      ],
      "name": "Deposited",
      "type": "event"
    },
    {
      "anonymous": false,
      "inputs": [
        {
          "indexed": true,
          "internalType": "address",
          "name": "redeemer",
          "type": "address"
        },
        {
          "indexed": false,
          "internalType": "uint256",
          "name": "numNouns",
          "type": "uint256"
        }
      ],
      "name": "Redeemed",
      "type": "event"
    },
    {
      "anonymous": false,
      "inputs": [
        {
          "indexed": false,
          "internalType": "uint256[]",
          "name": "nounsArr",
          "type": "uint256[]"
        }
      ],
      "name": "SplitNounsMoved",
      "type": "event"
    },
    {
      "anonymous": false,
      "inputs": [
        {
          "indexed": false,
          "internalType": "uint256",
          "name": "splitEndTime",
          "type": "uint256"
        }
      ],
      "name": "SplitThresholdMet",
      "type": "event"
    },
    {
      "anonymous": false,
      "inputs": [
        {
          "indexed": true,
          "internalType": "address",
          "name": "caller",
          "type": "address"
        }
      ],
      "name": "SplitTriggered",
      "type": "event"
    },
    {
      "anonymous": false,
      "inputs": [
        {
          "indexed": true,
          "internalType": "address",
          "name": "depositor",
          "type": "address"
        },
        {
          "indexed": false,
          "internalType": "uint256",
          "name": "tokenId",
          "type": "uint256"
        }
      ],
      "name": "Withdrawn",
      "type": "event"
    },
    {
      "inputs": [],
      "name": "currentPeriod",
      "outputs": [
        {
          "internalType": "enum DaoSplit.Period",
          "name": "",
          "type": "uint8"
        }
      ],
      "stateMutability": "view",
      "type": "function"
    },
    {
      "inputs": [
        {
          "internalType": "uint256",
          "name": "tokenId",
          "type": "uint256"
        },
        {
          "internalType": "string",
          "name": "reason",
          "type": "string"
        }
      ],
      "name": "deposit",
      "outputs": [],
      "stateMutability": "nonpayable",
      "type": "function"
    },
    {
      "inputs": [],
      "name": "depositedNouns",
      "outputs": [
        {
          "internalType": "uint256",
          "name": "",
          "type": "uint256"
        }
      ],
      "stateMutability": "view",
      "type": "function"
    },
    {
      "inputs": [
        {
          "internalType": "uint256",
          "name": "",
          "type": "uint256"
        }
      ],
      "name": "depositedNounsInfo",
      "outputs": [
        {
          "internalType": "uint256",
          "name": "tokenId",
          "type": "uint256"
        },
        {
          "internalType": "address",
          "name": "depositor",
          "type": "address"
        },
        {
          "internalType": "string",
          "name": "reason",
          "type": "string"
        }
      ],
      "stateMutability": "view",
      "type": "function"
    },
    {
      "inputs": [
        {
          "internalType": "address",
          "name": "",
          "type": "address"
        },
        {
          "internalType": "uint256",
          "name": "",
          "type": "uint256"
        }
      ],
      "name": "depositorToNouns",
      "outputs": [
        {
          "internalType": "uint256",
          "name": "",
          "type": "uint256"
        }
      ],
      "stateMutability": "view",
      "type": "function"
    },
    {
      "inputs": [],
      "name": "getSplitThreshold",
      "outputs": [
        {
          "internalType": "uint256",
          "name": "",
          "type": "uint256"
        }
      ],
      "stateMutability": "view",
      "type": "function"
    },
    {
      "inputs": [],
      "name": "nounsNFT",
      "outputs": [
        {
          "internalType": "contract IERC721Enumerable",
          "name": "",
          "type": "address"
        }
      ],
      "stateMutability": "view",
      "type": "function"
    },
    {
      "inputs": [],
      "name": "ogDao",
      "outputs": [
        {
          "internalType": "contract IOgDAO",
          "name": "",
          "type": "address"
        }
      ],
      "stateMutability": "view",
      "type": "function"
    },
    {
      "inputs": [
        {
          "internalType": "address",
          "name": "",
          "type": "address"
        },
        {
          "internalType": "address",
          "name": "",
          "type": "address"
        },
        {
          "internalType": "uint256",
          "name": "",
          "type": "uint256"
        },
        {
          "internalType": "bytes",
          "name": "",
          "type": "bytes"
        }
      ],
      "name": "onERC721Received",
      "outputs": [
        {
          "internalType": "bytes4",
          "name": "",
          "type": "bytes4"
        }
      ],
      "stateMutability": "pure",
      "type": "function"
    },
    {
      "inputs": [],
      "name": "redeem",
      "outputs": [],
      "stateMutability": "nonpayable",
      "type": "function"
    },
    {
      "inputs": [
        {
          "internalType": "uint256",
          "name": "",
          "type": "uint256"
        }
      ],
      "name": "redeemableERC20s",
      "outputs": [
        {
          "internalType": "address",
          "name": "",
          "type": "address"
        }
      ],
      "stateMutability": "view",
      "type": "function"
    },
    {
      "inputs": [],
      "name": "splitEndTime",
      "outputs": [
        {
          "internalType": "uint256",
          "name": "",
          "type": "uint256"
        }
      ],
      "stateMutability": "view",
      "type": "function"
    },
    {
      "inputs": [],
      "name": "triggerSplit",
      "outputs": [],
      "stateMutability": "nonpayable",
      "type": "function"
    },
    {
      "inputs": [
        {
          "internalType": "uint256[]",
          "name": "nounsArr",
          "type": "uint256[]"
        }
      ],
      "name": "triggerSplitMoveNouns",
      "outputs": [],
      "stateMutability": "nonpayable",
      "type": "function"
    },
    {
      "inputs": [
        {
          "internalType": "uint256",
          "name": "tokenId",
          "type": "uint256"
        }
      ],
      "name": "withdraw",
      "outputs": [],
      "stateMutability": "nonpayable",
      "type": "function"
    },
    {
      "stateMutability": "payable",
      "type": "receive"
    }
  ],
  "bytecode": "0x60806040523480156200001157600080fd5b5060405162002fb338038062002fb3833981810160405281019062000037919062000133565b600160008190555081600460006101000a81548173ffffffffffffffffffffffffffffffffffffffff021916908373ffffffffffffffffffffffffffffffffffffffff16021790555080600560006101000a81548173ffffffffffffffffffffffffffffffffffffffff021916908373ffffffffffffffffffffffffffffffffffffffff16021790555050506200017a565b600080fd5b600073ffffffffffffffffffffffffffffffffffffffff82169050919050565b6000620000fb82620000ce565b9050919050565b6200010d81620000ee565b81146200011957600080fd5b50565b6000815190506200012d8162000102565b92915050565b600080604083850312156200014d576200014c620000c9565b5b60006200015d858286016200011c565b925050602062000170858286016200011c565b9150509250929050565b612e29806200018a6000396000f3fe6080604052600436106100ec5760003560e01c80637dff64771161008a578063cbd19cb811610059578063cbd19cb8146102dd578063cf5a9c4914610308578063e4cbc13f14610345578063f1215d2514610370576100f3565b80637dff6477146102455780637ef470ff1461027057806390d114d714610287578063be040fb0146102c6576100f3565b80632078a848116100c65780632078a8481461018b5780632e1a7d4d146101c8578063471df92d146101f15780635270ebe21461021c576100f3565b806306040618146100f8578063150b7a02146101235780631cdc817d14610160576100f3565b366100f357005b600080fd5b34801561010457600080fd5b5061010d610399565b60405161011a9190611934565b60405180910390f35b34801561012f57600080fd5b5061014a60048036038101906101459190611a5c565b6103cf565b6040516101579190611b1f565b60405180910390f35b34801561016c57600080fd5b506101756103e4565b6040516101829190611b99565b60405180910390f35b34801561019757600080fd5b506101b260048036038101906101ad9190611bb4565b61040a565b6040516101bf9190611c03565b60405180910390f35b3480156101d457600080fd5b506101ef60048036038101906101ea9190611c1e565b61043b565b005b3480156101fd57600080fd5b506102066107b2565b6040516102139190611c6c565b60405180910390f35b34801561022857600080fd5b50610243600480360381019061023e9190611dd6565b6107d8565b005b34801561025157600080fd5b5061025a6109b0565b6040516102679190611c03565b60405180910390f35b34801561027c57600080fd5b506102856109b6565b005b34801561029357600080fd5b506102ae60048036038101906102a99190611c1e565b610c05565b6040516102bd93929190611ead565b60405180910390f35b3480156102d257600080fd5b506102db610cd7565b005b3480156102e957600080fd5b506102f2611033565b6040516102ff9190611c03565b60405180910390f35b34801561031457600080fd5b5061032f600480360381019061032a9190611c1e565b611039565b60405161033c9190611eeb565b60405180910390f35b34801561035157600080fd5b5061035a611078565b6040516103679190611c03565b60405180910390f35b34801561037c57600080fd5b5061039760048036038101906103929190611fbb565b611110565b005b60006103a3611078565b60015410156103b557600090506103cc565b6002544211156103c65760026103c9565b60015b90505b90565b600063150b7a0260e01b905095945050505050565b600460009054906101000a900473ffffffffffffffffffffffffffffffffffffffff1681565b6007602052816000526040600020818154811061042657600080fd5b90600052602060002001600091509150505481565b610443611442565b60006002811115610457576104566118bd565b5b61045f610399565b6002811115610471576104706118bd565b5b146104b1576040517f08c379a00000000000000000000000000000000000000000000000000000000081526004016104a890612089565b60405180910390fd5b3373ffffffffffffffffffffffffffffffffffffffff166006600083815260200190815260200160002060010160009054906101000a900473ffffffffffffffffffffffffffffffffffffffff1673ffffffffffffffffffffffffffffffffffffffff1614610555576040517f08c379a000000000000000000000000000000000000000000000000000000000815260040161054c906120f5565b60405180910390fd5b600660008281526020019081526020016000206000808201600090556001820160006101000a81549073ffffffffffffffffffffffffffffffffffffffff02191690556002820160006105a891906117b5565b5050600160008154809291906105bd90612144565b91905055506000600760003373ffffffffffffffffffffffffffffffffffffffff1673ffffffffffffffffffffffffffffffffffffffff168152602001908152602001600020905060005b81805490508110156106c657828282815481106106285761062761216d565b5b9060005260206000200154036106b357816001838054905061064a919061219c565b8154811061065b5761065a61216d565b5b90600052602060002001548282815481106106795761067861216d565b5b906000526020600020018190555081805480610698576106976121d0565b5b600190038181906000526020600020016000905590556106c6565b80806106be906121ff565b915050610608565b503373ffffffffffffffffffffffffffffffffffffffff167f7084f5476618d8e60b11ef0d7d3f06914655adb8793e28ff7f018d4c76d505d58360405161070d9190611c03565b60405180910390a2600460009054906101000a900473ffffffffffffffffffffffffffffffffffffffff1673ffffffffffffffffffffffffffffffffffffffff166342842e0e3033856040518463ffffffff1660e01b815260040161077493929190612247565b600060405180830381600087803b15801561078e57600080fd5b505af11580156107a2573d6000803e3d6000fd5b50505050506107af611491565b50565b600560009054906101000a900473ffffffffffffffffffffffffffffffffffffffff1681565b6002808111156107eb576107ea6118bd565b5b6107f3610399565b6002811115610805576108046118bd565b5b14610845576040517f08c379a000000000000000000000000000000000000000000000000000000000815260040161083c906122ca565b60405180910390fd5b6000815111610889576040517f08c379a000000000000000000000000000000000000000000000000000000000815260040161088090612336565b60405180910390fd5b60005b815181101561097557600460009054906101000a900473ffffffffffffffffffffffffffffffffffffffff1673ffffffffffffffffffffffffffffffffffffffff166342842e0e30600560009054906101000a900473ffffffffffffffffffffffffffffffffffffffff1685858151811061090a5761090961216d565b5b60200260200101516040518463ffffffff1660e01b815260040161093093929190612247565b600060405180830381600087803b15801561094a57600080fd5b505af115801561095e573d6000803e3d6000fd5b50505050808061096d906121ff565b91505061088c565b507fc48449f35178bf75f3370dcdc3b5145d3de53a555d70f60e9c8bec5c6c305e9d816040516109a59190612414565b60405180910390a150565b60015481565b6002808111156109c9576109c86118bd565b5b6109d1610399565b60028111156109e3576109e26118bd565b5b14610a23576040517f08c379a0000000000000000000000000000000000000000000000000000000008152600401610a1a906122ca565b60405180910390fd5b6000600460009054906101000a900473ffffffffffffffffffffffffffffffffffffffff1673ffffffffffffffffffffffffffffffffffffffff166370a08231306040518263ffffffff1660e01b8152600401610a809190611eeb565b602060405180830381865afa158015610a9d573d6000803e3d6000fd5b505050506040513d601f19601f82011682018060405250810190610ac1919061244b565b905060008114610b06576040517f08c379a0000000000000000000000000000000000000000000000000000000008152600401610afd906124c4565b60405180910390fd5b600560009054906101000a900473ffffffffffffffffffffffffffffffffffffffff1673ffffffffffffffffffffffffffffffffffffffff1663e5c7bc30306040518263ffffffff1660e01b8152600401610b619190612505565b6000604051808303816000875af1158015610b80573d6000803e3d6000fd5b505050506040513d6000823e3d601f19601f82011682018060405250810190610ba991906125f8565b60039080519060200190610bbe9291906117f5565b503373ffffffffffffffffffffffffffffffffffffffff167fe2a6a1c4ac89d9721a0e8b72a5d8eace7c89a966e7d2fa8e4383f2fd62285f8160405160405180910390a250565b60066020528060005260406000206000915090508060000154908060010160009054906101000a900473ffffffffffffffffffffffffffffffffffffffff1690806002018054610c5490612670565b80601f0160208091040260200160405190810160405280929190818152602001828054610c8090612670565b8015610ccd5780601f10610ca257610100808354040283529160200191610ccd565b820191906000526020600020905b815481529060010190602001808311610cb057829003601f168201915b5050505050905083565b610cdf611442565b600280811115610cf257610cf16118bd565b5b610cfa610399565b6002811115610d0c57610d0b6118bd565b5b14610d4c576040517f08c379a0000000000000000000000000000000000000000000000000000000008152600401610d43906122ca565b60405180910390fd5b6000600760003373ffffffffffffffffffffffffffffffffffffffff1673ffffffffffffffffffffffffffffffffffffffff168152602001908152602001600020905060008180549050905060008111610ddb576040517f08c379a0000000000000000000000000000000000000000000000000000000008152600401610dd2906126ed565b60405180910390fd5b60006001549050600081670de0b6b3a764000084610df9919061270d565b610e03919061277e565b905060004790506000670de0b6b3a76400008383610e21919061270d565b610e2b919061277e565b90503373ffffffffffffffffffffffffffffffffffffffff166108fc829081150290604051600060405180830381858888f19350505050158015610e73573d6000803e3d6000fd5b5060005b600380549050811015610f8957600060038281548110610e9a57610e9961216d565b5b9060005260206000200160009054906101000a900473ffffffffffffffffffffffffffffffffffffffff16905060008173ffffffffffffffffffffffffffffffffffffffff166370a08231306040518263ffffffff1660e01b8152600401610f029190611eeb565b602060405180830381865afa158015610f1f573d6000803e3d6000fd5b505050506040513d601f19601f82011682018060405250810190610f43919061244b565b90506000670de0b6b3a76400008783610f5c919061270d565b610f66919061277e565b9050610f7383338361149b565b5050508080610f81906121ff565b915050610e77565b50600760003373ffffffffffffffffffffffffffffffffffffffff1673ffffffffffffffffffffffffffffffffffffffff1681526020019081526020016000206000610fd5919061187f565b3373ffffffffffffffffffffffffffffffffffffffff167f4896181ff8f4543cc00db9fe9b6fb7e6f032b7eb772c72ab1ec1b4d2e03b93698660405161101b9190611c03565b60405180910390a2505050505050611031611491565b565b60025481565b6003818154811061104957600080fd5b906000526020600020016000915054906101000a900473ffffffffffffffffffffffffffffffffffffffff1681565b6000600560009054906101000a900473ffffffffffffffffffffffffffffffffffffffff1673ffffffffffffffffffffffffffffffffffffffff16638736a3c36040518163ffffffff1660e01b8152600401602060405180830381865afa1580156110e7573d6000803e3d6000fd5b505050506040513d601f19601f8201168201806040525081019061110b919061244b565b905090565b611118611442565b6000600281111561112c5761112b6118bd565b5b611134610399565b6002811115611146576111456118bd565b5b148061117d575060016002811115611161576111606118bd565b5b611169610399565b600281111561117b5761117a6118bd565b5b145b6111bc576040517f08c379a00000000000000000000000000000000000000000000000000000000081526004016111b390612821565b60405180910390fd5b600460009054906101000a900473ffffffffffffffffffffffffffffffffffffffff1673ffffffffffffffffffffffffffffffffffffffff166342842e0e3330856040518463ffffffff1660e01b815260040161121b93929190612247565b600060405180830381600087803b15801561123557600080fd5b505af1158015611249573d6000803e3d6000fd5b5050505060016000815480929190611260906121ff565b919050555060405180606001604052808381526020013373ffffffffffffffffffffffffffffffffffffffff16815260200182815250600660008481526020019081526020016000206000820151816000015560208201518160010160006101000a81548173ffffffffffffffffffffffffffffffffffffffff021916908373ffffffffffffffffffffffffffffffffffffffff160217905550604082015181600201908161130f91906129e3565b50905050600760003373ffffffffffffffffffffffffffffffffffffffff1673ffffffffffffffffffffffffffffffffffffffff168152602001908152602001600020829080600181540180825580915050600190039060005260206000200160009091909190915055611381611078565b6001541015801561139457506000600254145b156113e85762093a80426113a89190612ab5565b6002819055507f7975e6cebfdcc06c9a5d5da7d7a6c8249620255f7450e4784a06d2820bf711b16002546040516113df9190611c03565b60405180910390a15b3373ffffffffffffffffffffffffffffffffffffffff167f2da466a7b24304f47e87fa2e1e5a81b9831ce54fec19055ce277ca2f39ba42c48360405161142e9190611c03565b60405180910390a261143e611491565b5050565b600260005403611487576040517f08c379a000000000000000000000000000000000000000000000000000000000815260040161147e90612b35565b60405180910390fd5b6002600081905550565b6001600081905550565b61151c8363a9059cbb60e01b84846040516024016114ba929190612b55565b604051602081830303815290604052907bffffffffffffffffffffffffffffffffffffffffffffffffffffffff19166020820180517bffffffffffffffffffffffffffffffffffffffffffffffffffffffff8381831617835250505050611521565b505050565b6000611583826040518060400160405280602081526020017f5361666545524332303a206c6f772d6c6576656c2063616c6c206661696c65648152508573ffffffffffffffffffffffffffffffffffffffff166115e89092919063ffffffff16565b90506000815111156115e357808060200190518101906115a39190612bb6565b6115e2576040517f08c379a00000000000000000000000000000000000000000000000000000000081526004016115d990612c55565b60405180910390fd5b5b505050565b60606115f78484600085611600565b90509392505050565b606082471015611645576040517f08c379a000000000000000000000000000000000000000000000000000000000815260040161163c90612ce7565b60405180910390fd5b6000808673ffffffffffffffffffffffffffffffffffffffff16858760405161166e9190612d4e565b60006040518083038185875af1925050503d80600081146116ab576040519150601f19603f3d011682016040523d82523d6000602084013e6116b0565b606091505b50915091506116c1878383876116cd565b92505050949350505050565b6060831561172f576000835103611727576116e785611742565b611726576040517f08c379a000000000000000000000000000000000000000000000000000000000815260040161171d90612db1565b60405180910390fd5b5b82905061173a565b6117398383611765565b5b949350505050565b6000808273ffffffffffffffffffffffffffffffffffffffff163b119050919050565b6000825111156117785781518083602001fd5b806040517f08c379a00000000000000000000000000000000000000000000000000000000081526004016117ac9190612dd1565b60405180910390fd5b5080546117c190612670565b6000825580601f106117d357506117f2565b601f0160209004906000526020600020908101906117f191906118a0565b5b50565b82805482825590600052602060002090810192821561186e579160200282015b8281111561186d5782518260006101000a81548173ffffffffffffffffffffffffffffffffffffffff021916908373ffffffffffffffffffffffffffffffffffffffff16021790555091602001919060010190611815565b5b50905061187b91906118a0565b5090565b508054600082559060005260206000209081019061189d91906118a0565b50565b5b808211156118b95760008160009055506001016118a1565b5090565b7f4e487b7100000000000000000000000000000000000000000000000000000000600052602160045260246000fd5b600381106118fd576118fc6118bd565b5b50565b600081905061190e826118ec565b919050565b600061191e82611900565b9050919050565b61192e81611913565b82525050565b60006020820190506119496000830184611925565b92915050565b6000604051905090565b600080fd5b600080fd5b600073ffffffffffffffffffffffffffffffffffffffff82169050919050565b600061198e82611963565b9050919050565b61199e81611983565b81146119a957600080fd5b50565b6000813590506119bb81611995565b92915050565b6000819050919050565b6119d4816119c1565b81146119df57600080fd5b50565b6000813590506119f1816119cb565b92915050565b600080fd5b600080fd5b600080fd5b60008083601f840112611a1c57611a1b6119f7565b5b8235905067ffffffffffffffff811115611a3957611a386119fc565b5b602083019150836001820283011115611a5557611a54611a01565b5b9250929050565b600080600080600060808688031215611a7857611a77611959565b5b6000611a86888289016119ac565b9550506020611a97888289016119ac565b9450506040611aa8888289016119e2565b935050606086013567ffffffffffffffff811115611ac957611ac861195e565b5b611ad588828901611a06565b92509250509295509295909350565b60007fffffffff0000000000000000000000000000000000000000000000000000000082169050919050565b611b1981611ae4565b82525050565b6000602082019050611b346000830184611b10565b92915050565b6000819050919050565b6000611b5f611b5a611b5584611963565b611b3a565b611963565b9050919050565b6000611b7182611b44565b9050919050565b6000611b8382611b66565b9050919050565b611b9381611b78565b82525050565b6000602082019050611bae6000830184611b8a565b92915050565b60008060408385031215611bcb57611bca611959565b5b6000611bd9858286016119ac565b9250506020611bea858286016119e2565b9150509250929050565b611bfd816119c1565b82525050565b6000602082019050611c186000830184611bf4565b92915050565b600060208284031215611c3457611c33611959565b5b6000611c42848285016119e2565b91505092915050565b6000611c5682611b66565b9050919050565b611c6681611c4b565b82525050565b6000602082019050611c816000830184611c5d565b92915050565b6000601f19601f8301169050919050565b7f4e487b7100000000000000000000000000000000000000000000000000000000600052604160045260246000fd5b611cd082611c87565b810181811067ffffffffffffffff82111715611cef57611cee611c98565b5b80604052505050565b6000611d0261194f565b9050611d0e8282611cc7565b919050565b600067ffffffffffffffff821115611d2e57611d2d611c98565b5b602082029050602081019050919050565b6000611d52611d4d84611d13565b611cf8565b90508083825260208201905060208402830185811115611d7557611d74611a01565b5b835b81811015611d9e5780611d8a88826119e2565b845260208401935050602081019050611d77565b5050509392505050565b600082601f830112611dbd57611dbc6119f7565b5b8135611dcd848260208601611d3f565b91505092915050565b600060208284031215611dec57611deb611959565b5b600082013567ffffffffffffffff811115611e0a57611e0961195e565b5b611e1684828501611da8565b91505092915050565b611e2881611983565b82525050565b600081519050919050565b600082825260208201905092915050565b60005b83811015611e68578082015181840152602081019050611e4d565b60008484015250505050565b6000611e7f82611e2e565b611e898185611e39565b9350611e99818560208601611e4a565b611ea281611c87565b840191505092915050565b6000606082019050611ec26000830186611bf4565b611ecf6020830185611e1f565b8181036040830152611ee18184611e74565b9050949350505050565b6000602082019050611f006000830184611e1f565b92915050565b600080fd5b600067ffffffffffffffff821115611f2657611f25611c98565b5b611f2f82611c87565b9050602081019050919050565b82818337600083830152505050565b6000611f5e611f5984611f0b565b611cf8565b905082815260208101848484011115611f7a57611f79611f06565b5b611f85848285611f3c565b509392505050565b600082601f830112611fa257611fa16119f7565b5b8135611fb2848260208601611f4b565b91505092915050565b60008060408385031215611fd257611fd1611959565b5b6000611fe0858286016119e2565b925050602083013567ffffffffffffffff8111156120015761200061195e565b5b61200d85828601611f8d565b9150509250929050565b7f5769746864726177616c73206f6e6c7920616c6c6f77656420696e207072652060008201527f73706c697420706572696f640000000000000000000000000000000000000000602082015250565b6000612073602c83611e39565b915061207e82612017565b604082019050919050565b600060208201905081810360008301526120a281612066565b9050919050565b7f4f6e6c7920746865206465706f7369746f722063616e20776974686472617700600082015250565b60006120df601f83611e39565b91506120ea826120a9565b602082019050919050565b6000602082019050818103600083015261210e816120d2565b9050919050565b7f4e487b7100000000000000000000000000000000000000000000000000000000600052601160045260246000fd5b600061214f826119c1565b91506000820361216257612161612115565b5b600182039050919050565b7f4e487b7100000000000000000000000000000000000000000000000000000000600052603260045260246000fd5b60006121a7826119c1565b91506121b2836119c1565b92508282039050818111156121ca576121c9612115565b5b92915050565b7f4e487b7100000000000000000000000000000000000000000000000000000000600052603160045260246000fd5b600061220a826119c1565b91507fffffffffffffffffffffffffffffffffffffffffffffffffffffffffffffffff820361223c5761223b612115565b5b600182019050919050565b600060608201905061225c6000830186611e1f565b6122696020830185611e1f565b6122766040830184611bf4565b949350505050565b7f4e6f7420696e20706f73742073706c697420706572696f640000000000000000600082015250565b60006122b4601883611e39565b91506122bf8261227e565b602082019050919050565b600060208201905081810360008301526122e3816122a7565b9050919050565b7f496e76616c6964206e6f756e7320617272617900000000000000000000000000600082015250565b6000612320601383611e39565b915061232b826122ea565b602082019050919050565b6000602082019050818103600083015261234f81612313565b9050919050565b600081519050919050565b600082825260208201905092915050565b6000819050602082019050919050565b61238b816119c1565b82525050565b600061239d8383612382565b60208301905092915050565b6000602082019050919050565b60006123c182612356565b6123cb8185612361565b93506123d683612372565b8060005b838110156124075781516123ee8882612391565b97506123f9836123a9565b9250506001810190506123da565b5085935050505092915050565b6000602082019050818103600083015261242e81846123b6565b905092915050565b600081519050612445816119cb565b92915050565b60006020828403121561246157612460611959565b5b600061246f84828501612436565b91505092915050565b7f4e6f756e73207374696c6c20696e20636f6e7472616374000000000000000000600082015250565b60006124ae601783611e39565b91506124b982612478565b602082019050919050565b600060208201905081810360008301526124dd816124a1565b9050919050565b60006124ef82611963565b9050919050565b6124ff816124e4565b82525050565b600060208201905061251a60008301846124f6565b92915050565b600067ffffffffffffffff82111561253b5761253a611c98565b5b602082029050602081019050919050565b60008151905061255b81611995565b92915050565b600061257461256f84612520565b611cf8565b9050808382526020820190506020840283018581111561259757612596611a01565b5b835b818110156125c057806125ac888261254c565b845260208401935050602081019050612599565b5050509392505050565b600082601f8301126125df576125de6119f7565b5b81516125ef848260208601612561565b91505092915050565b60006020828403121561260e5761260d611959565b5b600082015167ffffffffffffffff81111561262c5761262b61195e565b5b612638848285016125ca565b91505092915050565b7f4e487b7100000000000000000000000000000000000000000000000000000000600052602260045260246000fd5b6000600282049050600182168061268857607f821691505b60208210810361269b5761269a612641565b5b50919050565b7f4e6f204e6f756e7320746f2072656465656d0000000000000000000000000000600082015250565b60006126d7601283611e39565b91506126e2826126a1565b602082019050919050565b60006020820190508181036000830152612706816126ca565b9050919050565b6000612718826119c1565b9150612723836119c1565b9250828202612731816119c1565b9150828204841483151761274857612747612115565b5b5092915050565b7f4e487b7100000000000000000000000000000000000000000000000000000000600052601260045260246000fd5b6000612789826119c1565b9150612794836119c1565b9250826127a4576127a361274f565b5b828204905092915050565b7f4465706f73697473206e6f7420616c6c6f77656420696e20706f73742073706c60008201527f697420706572696f640000000000000000000000000000000000000000000000602082015250565b600061280b602983611e39565b9150612816826127af565b604082019050919050565b6000602082019050818103600083015261283a816127fe565b9050919050565b60008190508160005260206000209050919050565b60006020601f8301049050919050565b600082821b905092915050565b6000600883026128a37fffffffffffffffffffffffffffffffffffffffffffffffffffffffffffffffff82612866565b6128ad8683612866565b95508019841693508086168417925050509392505050565b60006128e06128db6128d6846119c1565b611b3a565b6119c1565b9050919050565b6000819050919050565b6128fa836128c5565b61290e612906826128e7565b848454612873565b825550505050565b600090565b612923612916565b61292e8184846128f1565b505050565b5b818110156129525761294760008261291b565b600181019050612934565b5050565b601f8211156129975761296881612841565b61297184612856565b81016020851015612980578190505b61299461298c85612856565b830182612933565b50505b505050565b600082821c905092915050565b60006129ba6000198460080261299c565b1980831691505092915050565b60006129d383836129a9565b9150826002028217905092915050565b6129ec82611e2e565b67ffffffffffffffff811115612a0557612a04611c98565b5b612a0f8254612670565b612a1a828285612956565b600060209050601f831160018114612a4d5760008415612a3b578287015190505b612a4585826129c7565b865550612aad565b601f198416612a5b86612841565b60005b82811015612a8357848901518255600182019150602085019450602081019050612a5e565b86831015612aa05784890151612a9c601f8916826129a9565b8355505b6001600288020188555050505b505050505050565b6000612ac0826119c1565b9150612acb836119c1565b9250828201905080821115612ae357612ae2612115565b5b92915050565b7f5265656e7472616e637947756172643a207265656e7472616e742063616c6c00600082015250565b6000612b1f601f83611e39565b9150612b2a82612ae9565b602082019050919050565b60006020820190508181036000830152612b4e81612b12565b9050919050565b6000604082019050612b6a6000830185611e1f565b612b776020830184611bf4565b9392505050565b60008115159050919050565b612b9381612b7e565b8114612b9e57600080fd5b50565b600081519050612bb081612b8a565b92915050565b600060208284031215612bcc57612bcb611959565b5b6000612bda84828501612ba1565b91505092915050565b7f5361666545524332303a204552433230206f7065726174696f6e20646964206e60008201527f6f74207375636365656400000000000000000000000000000000000000000000602082015250565b6000612c3f602a83611e39565b9150612c4a82612be3565b604082019050919050565b60006020820190508181036000830152612c6e81612c32565b9050919050565b7f416464726573733a20696e73756666696369656e742062616c616e636520666f60008201527f722063616c6c0000000000000000000000000000000000000000000000000000602082015250565b6000612cd1602683611e39565b9150612cdc82612c75565b604082019050919050565b60006020820190508181036000830152612d0081612cc4565b9050919050565b600081519050919050565b600081905092915050565b6000612d2882612d07565b612d328185612d12565b9350612d42818560208601611e4a565b80840191505092915050565b6000612d5a8284612d1d565b915081905092915050565b7f416464726573733a2063616c6c20746f206e6f6e2d636f6e7472616374000000600082015250565b6000612d9b601d83611e39565b9150612da682612d65565b602082019050919050565b60006020820190508181036000830152612dca81612d8e565b9050919050565b60006020820190508181036000830152612deb8184611e74565b90509291505056fea2646970667358221220d8efa8c2b848214a19f6a46626c4d93842c4dfb38595cb3ead0ae93e3bf8b02364736f6c63430008120033",
  "linkReferences": {},
  "deployedLinkReferences": {}
}